{
  "_format": "hh-sol-artifact-1",
  "contractName": "StakingContract",
  "sourceName": "contracts/StakingContract.sol",
  "abi": [
    {
      "inputs": [
        {
          "internalType": "address",
          "name": "_sunFiToken",
          "type": "address"
        }
      ],
      "stateMutability": "nonpayable",
      "type": "constructor"
    },
    {
      "inputs": [
        {
          "internalType": "address",
          "name": "owner",
          "type": "address"
        }
      ],
      "name": "OwnableInvalidOwner",
      "type": "error"
    },
    {
      "inputs": [
        {
          "internalType": "address",
          "name": "account",
          "type": "address"
        }
      ],
      "name": "OwnableUnauthorizedAccount",
      "type": "error"
    },
    {
      "anonymous": false,
      "inputs": [
        {
          "indexed": false,
          "internalType": "uint256",
          "name": "newRate",
          "type": "uint256"
        }
      ],
      "name": "LiquidityRareUpdated",
      "type": "event"
    },
    {
      "anonymous": false,
      "inputs": [
        {
          "indexed": true,
          "internalType": "address",
          "name": "previousOwner",
          "type": "address"
        },
        {
          "indexed": true,
          "internalType": "address",
          "name": "newOwner",
          "type": "address"
        }
      ],
      "name": "OwnershipTransferred",
      "type": "event"
    },
    {
      "anonymous": false,
      "inputs": [
        {
          "indexed": true,
          "internalType": "address",
          "name": "user",
          "type": "address"
        },
        {
          "indexed": false,
          "internalType": "uint256",
          "name": "amount",
          "type": "uint256"
        }
      ],
      "name": "Staked",
      "type": "event"
    },
    {
      "anonymous": false,
      "inputs": [
        {
          "indexed": true,
          "internalType": "address",
          "name": "user",
          "type": "address"
        },
        {
          "indexed": false,
          "internalType": "uint256",
          "name": "amount",
          "type": "uint256"
        },
        {
          "indexed": false,
          "internalType": "uint256",
          "name": "rewards",
          "type": "uint256"
        }
      ],
      "name": "Unstaked",
      "type": "event"
    },
    {
      "inputs": [
        {
          "internalType": "address",
          "name": "_user",
          "type": "address"
        }
      ],
      "name": "calculateRewards",
      "outputs": [
        {
          "internalType": "uint256",
          "name": "",
          "type": "uint256"
        }
      ],
      "stateMutability": "view",
      "type": "function"
    },
    {
      "inputs": [],
      "name": "liquidityRate",
      "outputs": [
        {
          "internalType": "uint256",
          "name": "",
          "type": "uint256"
        }
      ],
      "stateMutability": "view",
      "type": "function"
    },
    {
      "inputs": [],
      "name": "owner",
      "outputs": [
        {
          "internalType": "address",
          "name": "",
          "type": "address"
        }
      ],
      "stateMutability": "view",
      "type": "function"
    },
    {
      "inputs": [],
      "name": "renounceOwnership",
      "outputs": [],
      "stateMutability": "nonpayable",
      "type": "function"
    },
    {
      "inputs": [
        {
          "internalType": "uint256",
          "name": "_amount",
          "type": "uint256"
        }
      ],
      "name": "stake",
      "outputs": [],
      "stateMutability": "nonpayable",
      "type": "function"
    },
    {
      "inputs": [
        {
          "internalType": "address",
          "name": "",
          "type": "address"
        }
      ],
      "name": "stakes",
      "outputs": [
        {
          "internalType": "uint256",
          "name": "amount",
          "type": "uint256"
        },
        {
          "internalType": "uint256",
          "name": "startTime",
          "type": "uint256"
        },
        {
          "internalType": "uint256",
          "name": "rewards",
          "type": "uint256"
        }
      ],
      "stateMutability": "view",
      "type": "function"
    },
    {
      "inputs": [],
      "name": "sunFiToken",
      "outputs": [
        {
          "internalType": "contract ISunFi",
          "name": "",
          "type": "address"
        }
      ],
      "stateMutability": "view",
      "type": "function"
    },
    {
      "inputs": [
        {
          "internalType": "address",
          "name": "newOwner",
          "type": "address"
        }
      ],
      "name": "transferOwnership",
      "outputs": [],
      "stateMutability": "nonpayable",
      "type": "function"
    },
    {
      "inputs": [],
      "name": "unstake",
      "outputs": [],
      "stateMutability": "nonpayable",
      "type": "function"
    },
    {
      "inputs": [
        {
          "internalType": "uint256",
          "name": "_newRate",
          "type": "uint256"
        }
      ],
      "name": "updateLiquidityRate",
      "outputs": [],
      "stateMutability": "nonpayable",
      "type": "function"
    }
  ],
  "bytecode": "0x608060405234801561001057600080fd5b5060405161124338038061124383398181016040528101906100329190610223565b33600073ffffffffffffffffffffffffffffffffffffffff168173ffffffffffffffffffffffffffffffffffffffff16036100a55760006040517f1e4fbdf700000000000000000000000000000000000000000000000000000000815260040161009c919061025f565b60405180910390fd5b6100b4816100fc60201b60201c565b5080600160006101000a81548173ffffffffffffffffffffffffffffffffffffffff021916908373ffffffffffffffffffffffffffffffffffffffff1602179055505061027a565b60008060009054906101000a900473ffffffffffffffffffffffffffffffffffffffff169050816000806101000a81548173ffffffffffffffffffffffffffffffffffffffff021916908373ffffffffffffffffffffffffffffffffffffffff1602179055508173ffffffffffffffffffffffffffffffffffffffff168173ffffffffffffffffffffffffffffffffffffffff167f8be0079c531659141344cd1fd0a4f28419497f9722a3daafe3b4186f6b6457e060405160405180910390a35050565b600080fd5b600073ffffffffffffffffffffffffffffffffffffffff82169050919050565b60006101f0826101c5565b9050919050565b610200816101e5565b811461020b57600080fd5b50565b60008151905061021d816101f7565b92915050565b600060208284031215610239576102386101c0565b5b60006102478482850161020e565b91505092915050565b610259816101e5565b82525050565b60006020820190506102746000830184610250565b92915050565b610fba806102896000396000f3fe608060405234801561001057600080fd5b506004361061009e5760003560e01c8063715018a611610066578063715018a61461014b5780638da5cb5b14610155578063a694fc3a14610173578063e68972c61461018f578063f2fde38b146101ab5761009e565b806316934fc4146100a35780632def6620146100d5578063548cbeb0146100df57806359e4f009146100fd57806364ab86751461011b575b600080fd5b6100bd60048036038101906100b89190610a73565b6101c7565b6040516100cc93929190610ab9565b60405180910390f35b6100dd6101f1565b005b6100e7610490565b6040516100f49190610af0565b60405180910390f35b610105610496565b6040516101129190610b6a565b60405180910390f35b61013560048036038101906101309190610a73565b6104bc565b6040516101429190610af0565b60405180910390f35b61015361059d565b005b61015d6105b1565b60405161016a9190610b94565b60405180910390f35b61018d60048036038101906101889190610bdb565b6105da565b005b6101a960048036038101906101a49190610bdb565b6107ee565b005b6101c560048036038101906101c09190610a73565b610837565b005b60026020528060005260406000206000915090508060000154908060010154908060020154905083565b6000600260003373ffffffffffffffffffffffffffffffffffffffff1673ffffffffffffffffffffffffffffffffffffffff1681526020019081526020016000209050600081600001541161027b576040517f08c379a000000000000000000000000000000000000000000000000000000000815260040161027290610c65565b60405180910390fd5b6000816002015461028b336104bc565b6102959190610cb4565b905060008183600001546102a99190610cb4565b9050600083600001819055506000836002018190555060008360010181905550600160009054906101000a900473ffffffffffffffffffffffffffffffffffffffff1673ffffffffffffffffffffffffffffffffffffffff166340c10f1933846040518363ffffffff1660e01b8152600401610326929190610ce8565b600060405180830381600087803b15801561034057600080fd5b505af1158015610354573d6000803e3d6000fd5b50505050600160009054906101000a900473ffffffffffffffffffffffffffffffffffffffff1673ffffffffffffffffffffffffffffffffffffffff1663a9059cbb3385600001546040518363ffffffff1660e01b81526004016103b9929190610ce8565b6020604051808303816000875af11580156103d8573d6000803e3d6000fd5b505050506040513d601f19601f820116820180604052508101906103fc9190610d49565b61043b576040517f08c379a000000000000000000000000000000000000000000000000000000000815260040161043290610dc2565b60405180910390fd5b3373ffffffffffffffffffffffffffffffffffffffff167f7fc4727e062e336010f2c282598ef5f14facb3de68cf8195c2f23e1454b2b74e8284604051610483929190610de2565b60405180910390a2505050565b60035481565b600160009054906101000a900473ffffffffffffffffffffffffffffffffffffffff1681565b600080600260008473ffffffffffffffffffffffffffffffffffffffff1673ffffffffffffffffffffffffffffffffffffffff1681526020019081526020016000206040518060600160405290816000820154815260200160018201548152602001600282015481525050905060008160000151148061053e57506000600354145b1561054d576000915050610598565b600081602001514261055f9190610e0b565b905060006301e133806003546105759190610e6e565b9050818184600001516105889190610e9f565b6105929190610e9f565b93505050505b919050565b6105a56108bd565b6105af6000610944565b565b60008060009054906101000a900473ffffffffffffffffffffffffffffffffffffffff16905090565b6000811161061d576040517f08c379a000000000000000000000000000000000000000000000000000000000815260040161061490610f2d565b60405180910390fd5b600160009054906101000a900473ffffffffffffffffffffffffffffffffffffffff1673ffffffffffffffffffffffffffffffffffffffff166323b872dd3330846040518463ffffffff1660e01b815260040161067c93929190610f4d565b6020604051808303816000875af115801561069b573d6000803e3d6000fd5b505050506040513d601f19601f820116820180604052508101906106bf9190610d49565b6106fe576040517f08c379a00000000000000000000000000000000000000000000000000000000081526004016106f590610dc2565b60405180910390fd5b6000600260003373ffffffffffffffffffffffffffffffffffffffff1673ffffffffffffffffffffffffffffffffffffffff1681526020019081526020016000209050600081600001541115610778576000610759336104bc565b90508082600201600082825461076f9190610cb4565b92505081905550505b8181600001600082825461078c9190610cb4565b925050819055504281600101819055503373ffffffffffffffffffffffffffffffffffffffff167f9e71bc8eea02a63969f509818f2dafb9254532904319f9dbda79b67bd34a5f3d836040516107e29190610af0565b60405180910390a25050565b6107f66108bd565b806003819055507f440f9ff677fe64dd6d5fdead38cb4716def82230f1101f5252ecc61418fb12ed8160405161082c9190610af0565b60405180910390a150565b61083f6108bd565b600073ffffffffffffffffffffffffffffffffffffffff168173ffffffffffffffffffffffffffffffffffffffff16036108b15760006040517f1e4fbdf70000000000000000000000000000000000000000000000000000000081526004016108a89190610b94565b60405180910390fd5b6108ba81610944565b50565b6108c5610a08565b73ffffffffffffffffffffffffffffffffffffffff166108e36105b1565b73ffffffffffffffffffffffffffffffffffffffff161461094257610906610a08565b6040517f118cdaa70000000000000000000000000000000000000000000000000000000081526004016109399190610b94565b60405180910390fd5b565b60008060009054906101000a900473ffffffffffffffffffffffffffffffffffffffff169050816000806101000a81548173ffffffffffffffffffffffffffffffffffffffff021916908373ffffffffffffffffffffffffffffffffffffffff1602179055508173ffffffffffffffffffffffffffffffffffffffff168173ffffffffffffffffffffffffffffffffffffffff167f8be0079c531659141344cd1fd0a4f28419497f9722a3daafe3b4186f6b6457e060405160405180910390a35050565b600033905090565b600080fd5b600073ffffffffffffffffffffffffffffffffffffffff82169050919050565b6000610a4082610a15565b9050919050565b610a5081610a35565b8114610a5b57600080fd5b50565b600081359050610a6d81610a47565b92915050565b600060208284031215610a8957610a88610a10565b5b6000610a9784828501610a5e565b91505092915050565b6000819050919050565b610ab381610aa0565b82525050565b6000606082019050610ace6000830186610aaa565b610adb6020830185610aaa565b610ae86040830184610aaa565b949350505050565b6000602082019050610b056000830184610aaa565b92915050565b6000819050919050565b6000610b30610b2b610b2684610a15565b610b0b565b610a15565b9050919050565b6000610b4282610b15565b9050919050565b6000610b5482610b37565b9050919050565b610b6481610b49565b82525050565b6000602082019050610b7f6000830184610b5b565b92915050565b610b8e81610a35565b82525050565b6000602082019050610ba96000830184610b85565b92915050565b610bb881610aa0565b8114610bc357600080fd5b50565b600081359050610bd581610baf565b92915050565b600060208284031215610bf157610bf0610a10565b5b6000610bff84828501610bc6565b91505092915050565b600082825260208201905092915050565b7f4e6f20746f6b656e73207374616b656400000000000000000000000000000000600082015250565b6000610c4f601083610c08565b9150610c5a82610c19565b602082019050919050565b60006020820190508181036000830152610c7e81610c42565b9050919050565b7f4e487b7100000000000000000000000000000000000000000000000000000000600052601160045260246000fd5b6000610cbf82610aa0565b9150610cca83610aa0565b9250828201905080821115610ce257610ce1610c85565b5b92915050565b6000604082019050610cfd6000830185610b85565b610d0a6020830184610aaa565b9392505050565b60008115159050919050565b610d2681610d11565b8114610d3157600080fd5b50565b600081519050610d4381610d1d565b92915050565b600060208284031215610d5f57610d5e610a10565b5b6000610d6d84828501610d34565b91505092915050565b7f546f6b656e207472616e73666572206661696c65640000000000000000000000600082015250565b6000610dac601583610c08565b9150610db782610d76565b602082019050919050565b60006020820190508181036000830152610ddb81610d9f565b9050919050565b6000604082019050610df76000830185610aaa565b610e046020830184610aaa565b9392505050565b6000610e1682610aa0565b9150610e2183610aa0565b9250828203905081811115610e3957610e38610c85565b5b92915050565b7f4e487b7100000000000000000000000000000000000000000000000000000000600052601260045260246000fd5b6000610e7982610aa0565b9150610e8483610aa0565b925082610e9457610e93610e3f565b5b828204905092915050565b6000610eaa82610aa0565b9150610eb583610aa0565b9250828202610ec381610aa0565b91508282048414831517610eda57610ed9610c85565b5b5092915050565b7f43616e6e6f74207374616b65203020746f6b656e730000000000000000000000600082015250565b6000610f17601583610c08565b9150610f2282610ee1565b602082019050919050565b60006020820190508181036000830152610f4681610f0a565b9050919050565b6000606082019050610f626000830186610b85565b610f6f6020830185610b85565b610f7c6040830184610aaa565b94935050505056fea2646970667358221220fcff830e3c1b111c03aa0467529a068e896688e2400c844aa69f2c2ad1b1441464736f6c634300081b0033",
  "linkReferences": {},
  "deployedLinkReferences": {}
}