{
  "_format": "hh-sol-artifact-1",
  "contractName": "SunFi",
  "sourceName": "contracts/SunFi.sol",
  "abi": [
    {
      "inputs": [],
      "stateMutability": "payable",
      "type": "constructor"
    },
    {
      "inputs": [
        {
          "internalType": "address",
          "name": "spender",
          "type": "address"
        },
        {
          "internalType": "uint256",
          "name": "allowance",
          "type": "uint256"
        },
        {
          "internalType": "uint256",
          "name": "needed",
          "type": "uint256"
        }
      ],
      "name": "ERC20InsufficientAllowance",
      "type": "error"
    },
    {
      "inputs": [
        {
          "internalType": "address",
          "name": "sender",
          "type": "address"
        },
        {
          "internalType": "uint256",
          "name": "balance",
          "type": "uint256"
        },
        {
          "internalType": "uint256",
          "name": "needed",
          "type": "uint256"
        }
      ],
      "name": "ERC20InsufficientBalance",
      "type": "error"
    },
    {
      "inputs": [
        {
          "internalType": "address",
          "name": "approver",
          "type": "address"
        }
      ],
      "name": "ERC20InvalidApprover",
      "type": "error"
    },
    {
      "inputs": [
        {
          "internalType": "address",
          "name": "receiver",
          "type": "address"
        }
      ],
      "name": "ERC20InvalidReceiver",
      "type": "error"
    },
    {
      "inputs": [
        {
          "internalType": "address",
          "name": "sender",
          "type": "address"
        }
      ],
      "name": "ERC20InvalidSender",
      "type": "error"
    },
    {
      "inputs": [
        {
          "internalType": "address",
          "name": "spender",
          "type": "address"
        }
      ],
      "name": "ERC20InvalidSpender",
      "type": "error"
    },
    {
      "inputs": [
        {
          "internalType": "address",
          "name": "owner",
          "type": "address"
        }
      ],
      "name": "OwnableInvalidOwner",
      "type": "error"
    },
    {
      "inputs": [
        {
          "internalType": "address",
          "name": "account",
          "type": "address"
        }
      ],
      "name": "OwnableUnauthorizedAccount",
      "type": "error"
    },
    {
      "anonymous": false,
      "inputs": [
        {
          "indexed": true,
          "internalType": "address",
          "name": "owner",
          "type": "address"
        },
        {
          "indexed": true,
          "internalType": "address",
          "name": "spender",
          "type": "address"
        },
        {
          "indexed": false,
          "internalType": "uint256",
          "name": "value",
          "type": "uint256"
        }
      ],
      "name": "Approval",
      "type": "event"
    },
    {
      "anonymous": false,
      "inputs": [
        {
          "indexed": false,
          "internalType": "address",
          "name": "clientAdress",
          "type": "address"
        },
        {
          "indexed": false,
          "internalType": "uint256",
          "name": "maxMintable",
          "type": "uint256"
        }
      ],
      "name": "ClientRegistered",
      "type": "event"
    },
    {
      "anonymous": false,
      "inputs": [
        {
          "indexed": false,
          "internalType": "address",
          "name": "sender",
          "type": "address"
        },
        {
          "indexed": false,
          "internalType": "uint256",
          "name": "amount",
          "type": "uint256"
        },
        {
          "indexed": false,
          "internalType": "bytes",
          "name": "data",
          "type": "bytes"
        }
      ],
      "name": "FallbackCalled",
      "type": "event"
    },
    {
      "anonymous": false,
      "inputs": [
        {
          "indexed": true,
          "internalType": "address",
          "name": "client",
          "type": "address"
        },
        {
          "indexed": false,
          "internalType": "uint256",
          "name": "newMaxMintable",
          "type": "uint256"
        }
      ],
      "name": "MaxMintableUpdated",
      "type": "event"
    },
    {
      "anonymous": false,
      "inputs": [
        {
          "indexed": true,
          "internalType": "address",
          "name": "previousOwner",
          "type": "address"
        },
        {
          "indexed": true,
          "internalType": "address",
          "name": "newOwner",
          "type": "address"
        }
      ],
      "name": "OwnershipTransferred",
      "type": "event"
    },
    {
      "anonymous": false,
      "inputs": [
        {
          "indexed": false,
          "internalType": "address",
          "name": "sender",
          "type": "address"
        },
        {
          "indexed": false,
          "internalType": "uint256",
          "name": "amount",
          "type": "uint256"
        }
      ],
      "name": "ReceivedEther",
      "type": "event"
    },
    {
      "anonymous": false,
      "inputs": [
        {
          "indexed": true,
          "internalType": "address",
          "name": "recipient",
          "type": "address"
        },
        {
          "indexed": false,
          "internalType": "uint256",
          "name": "amount",
          "type": "uint256"
        }
      ],
      "name": "TokenMinted",
      "type": "event"
    },
    {
      "anonymous": false,
      "inputs": [
        {
          "indexed": true,
          "internalType": "address",
          "name": "from",
          "type": "address"
        },
        {
          "indexed": true,
          "internalType": "address",
          "name": "to",
          "type": "address"
        },
        {
          "indexed": false,
          "internalType": "uint256",
          "name": "value",
          "type": "uint256"
        }
      ],
      "name": "Transfer",
      "type": "event"
    },
    {
      "stateMutability": "payable",
      "type": "fallback"
    },
    {
      "inputs": [
        {
          "internalType": "address",
          "name": "_addr",
          "type": "address"
        },
        {
          "internalType": "uint256",
          "name": "_mintableNbr",
          "type": "uint256"
        }
      ],
      "name": "addClient",
      "outputs": [],
      "stateMutability": "nonpayable",
      "type": "function"
    },
    {
      "inputs": [
        {
          "internalType": "address",
          "name": "owner",
          "type": "address"
        },
        {
          "internalType": "address",
          "name": "spender",
          "type": "address"
        }
      ],
      "name": "allowance",
      "outputs": [
        {
          "internalType": "uint256",
          "name": "",
          "type": "uint256"
        }
      ],
      "stateMutability": "view",
      "type": "function"
    },
    {
      "inputs": [
        {
          "internalType": "address",
          "name": "spender",
          "type": "address"
        },
        {
          "internalType": "uint256",
          "name": "value",
          "type": "uint256"
        }
      ],
      "name": "approve",
      "outputs": [
        {
          "internalType": "bool",
          "name": "",
          "type": "bool"
        }
      ],
      "stateMutability": "nonpayable",
      "type": "function"
    },
    {
      "inputs": [
        {
          "internalType": "address",
          "name": "minter",
          "type": "address"
        }
      ],
      "name": "authorizeMinter",
      "outputs": [],
      "stateMutability": "nonpayable",
      "type": "function"
    },
    {
      "inputs": [
        {
          "internalType": "address",
          "name": "account",
          "type": "address"
        }
      ],
      "name": "balanceOf",
      "outputs": [
        {
          "internalType": "uint256",
          "name": "",
          "type": "uint256"
        }
      ],
      "stateMutability": "view",
      "type": "function"
    },
    {
      "inputs": [
        {
          "internalType": "address",
          "name": "recipient",
          "type": "address"
        },
        {
          "internalType": "uint256",
          "name": "amount",
          "type": "uint256"
        }
      ],
      "name": "burnSunWattToken",
      "outputs": [],
      "stateMutability": "nonpayable",
      "type": "function"
    },
    {
      "inputs": [],
      "name": "decimals",
      "outputs": [
        {
          "internalType": "uint8",
          "name": "",
          "type": "uint8"
        }
      ],
      "stateMutability": "view",
      "type": "function"
    },
    {
      "inputs": [
        {
          "internalType": "address",
          "name": "_addr",
          "type": "address"
        }
      ],
      "name": "deleteClient",
      "outputs": [],
      "stateMutability": "nonpayable",
      "type": "function"
    },
    {
      "inputs": [
        {
          "internalType": "address",
          "name": "_addr",
          "type": "address"
        }
      ],
      "name": "getClient",
      "outputs": [
        {
          "internalType": "bool",
          "name": "isRegistered",
          "type": "bool"
        },
        {
          "internalType": "uint256",
          "name": "maxMintable",
          "type": "uint256"
        }
      ],
      "stateMutability": "view",
      "type": "function"
    },
    {
      "inputs": [
        {
          "internalType": "address",
          "name": "_addr",
          "type": "address"
        }
      ],
      "name": "getClientData",
      "outputs": [
        {
          "internalType": "bool",
          "name": "isRegistered",
          "type": "bool"
        },
        {
          "internalType": "uint256",
          "name": "maxMintable",
          "type": "uint256"
        },
        {
          "internalType": "uint256",
          "name": "unusedMintAllowance",
          "type": "uint256"
        },
        {
          "internalType": "uint256",
          "name": "lastMintTimestamp",
          "type": "uint256"
        }
      ],
      "stateMutability": "view",
      "type": "function"
    },
    {
      "inputs": [
        {
          "internalType": "address",
          "name": "user",
          "type": "address"
        }
      ],
      "name": "getMintHistory",
      "outputs": [
        {
          "internalType": "uint256[]",
          "name": "",
          "type": "uint256[]"
        },
        {
          "internalType": "uint256[]",
          "name": "",
          "type": "uint256[]"
        }
      ],
      "stateMutability": "view",
      "type": "function"
    },
    {
      "inputs": [
        {
          "internalType": "address",
          "name": "recipient",
          "type": "address"
        },
        {
          "internalType": "uint256",
          "name": "amount",
          "type": "uint256"
        }
      ],
      "name": "getSunWattToken",
      "outputs": [],
      "stateMutability": "nonpayable",
      "type": "function"
    },
    {
      "inputs": [
        {
          "internalType": "address",
          "name": "_addr",
          "type": "address"
        }
      ],
      "name": "getTotalMinted",
      "outputs": [
        {
          "internalType": "uint256",
          "name": "",
          "type": "uint256"
        }
      ],
      "stateMutability": "view",
      "type": "function"
    },
    {
      "inputs": [
        {
          "internalType": "address",
          "name": "to",
          "type": "address"
        },
        {
          "internalType": "uint256",
          "name": "amount",
          "type": "uint256"
        }
      ],
      "name": "mint",
      "outputs": [],
      "stateMutability": "nonpayable",
      "type": "function"
    },
    {
      "inputs": [
        {
          "internalType": "address",
          "name": "",
          "type": "address"
        },
        {
          "internalType": "uint256",
          "name": "",
          "type": "uint256"
        }
      ],
      "name": "mintHistory",
      "outputs": [
        {
          "internalType": "uint256",
          "name": "amount",
          "type": "uint256"
        },
        {
          "internalType": "uint256",
          "name": "timestamp",
          "type": "uint256"
        }
      ],
      "stateMutability": "view",
      "type": "function"
    },
    {
      "inputs": [],
      "name": "name",
      "outputs": [
        {
          "internalType": "string",
          "name": "",
          "type": "string"
        }
      ],
      "stateMutability": "view",
      "type": "function"
    },
    {
      "inputs": [],
      "name": "owner",
      "outputs": [
        {
          "internalType": "address",
          "name": "",
          "type": "address"
        }
      ],
      "stateMutability": "view",
      "type": "function"
    },
    {
      "inputs": [],
      "name": "renounceOwnership",
      "outputs": [],
      "stateMutability": "nonpayable",
      "type": "function"
    },
    {
      "inputs": [
        {
          "internalType": "address",
          "name": "minter",
          "type": "address"
        }
      ],
      "name": "revokeMinter",
      "outputs": [],
      "stateMutability": "nonpayable",
      "type": "function"
    },
    {
      "inputs": [],
      "name": "symbol",
      "outputs": [
        {
          "internalType": "string",
          "name": "",
          "type": "string"
        }
      ],
      "stateMutability": "view",
      "type": "function"
    },
    {
      "inputs": [],
      "name": "totalSupply",
      "outputs": [
        {
          "internalType": "uint256",
          "name": "",
          "type": "uint256"
        }
      ],
      "stateMutability": "view",
      "type": "function"
    },
    {
      "inputs": [
        {
          "internalType": "address",
          "name": "to",
          "type": "address"
        },
        {
          "internalType": "uint256",
          "name": "value",
          "type": "uint256"
        }
      ],
      "name": "transfer",
      "outputs": [
        {
          "internalType": "bool",
          "name": "",
          "type": "bool"
        }
      ],
      "stateMutability": "nonpayable",
      "type": "function"
    },
    {
      "inputs": [
        {
          "internalType": "address",
          "name": "from",
          "type": "address"
        },
        {
          "internalType": "address",
          "name": "to",
          "type": "address"
        },
        {
          "internalType": "uint256",
          "name": "value",
          "type": "uint256"
        }
      ],
      "name": "transferFrom",
      "outputs": [
        {
          "internalType": "bool",
          "name": "",
          "type": "bool"
        }
      ],
      "stateMutability": "nonpayable",
      "type": "function"
    },
    {
      "inputs": [
        {
          "internalType": "address",
          "name": "newOwner",
          "type": "address"
        }
      ],
      "name": "transferOwnership",
      "outputs": [],
      "stateMutability": "nonpayable",
      "type": "function"
    },
    {
      "stateMutability": "payable",
      "type": "receive"
    }
  ],
  "bytecode": "0x6080604052336040518060400160405280600781526020017f53756e57617474000000000000000000000000000000000000000000000000008152506040518060400160405280600381526020017f4b5748000000000000000000000000000000000000000000000000000000000081525081600390816100809190610430565b5080600490816100909190610430565b505050600073ffffffffffffffffffffffffffffffffffffffff168173ffffffffffffffffffffffffffffffffffffffff16036101055760006040517f1e4fbdf70000000000000000000000000000000000000000000000000000000081526004016100fc9190610543565b60405180910390fd5b6101148161011a60201b60201c565b5061055e565b6000600560009054906101000a900473ffffffffffffffffffffffffffffffffffffffff16905081600560006101000a81548173ffffffffffffffffffffffffffffffffffffffff021916908373ffffffffffffffffffffffffffffffffffffffff1602179055508173ffffffffffffffffffffffffffffffffffffffff168173ffffffffffffffffffffffffffffffffffffffff167f8be0079c531659141344cd1fd0a4f28419497f9722a3daafe3b4186f6b6457e060405160405180910390a35050565b600081519050919050565b7f4e487b7100000000000000000000000000000000000000000000000000000000600052604160045260246000fd5b7f4e487b7100000000000000000000000000000000000000000000000000000000600052602260045260246000fd5b6000600282049050600182168061026157607f821691505b6020821081036102745761027361021a565b5b50919050565b60008190508160005260206000209050919050565b60006020601f8301049050919050565b600082821b905092915050565b6000600883026102dc7fffffffffffffffffffffffffffffffffffffffffffffffffffffffffffffffff8261029f565b6102e6868361029f565b95508019841693508086168417925050509392505050565b6000819050919050565b6000819050919050565b600061032d610328610323846102fe565b610308565b6102fe565b9050919050565b6000819050919050565b61034783610312565b61035b61035382610334565b8484546102ac565b825550505050565b600090565b610370610363565b61037b81848461033e565b505050565b5b8181101561039f57610394600082610368565b600181019050610381565b5050565b601f8211156103e4576103b58161027a565b6103be8461028f565b810160208510156103cd578190505b6103e16103d98561028f565b830182610380565b50505b505050565b600082821c905092915050565b6000610407600019846008026103e9565b1980831691505092915050565b600061042083836103f6565b9150826002028217905092915050565b610439826101e0565b67ffffffffffffffff811115610452576104516101eb565b5b61045c8254610249565b6104678282856103a3565b600060209050601f83116001811461049a5760008415610488578287015190505b6104928582610414565b8655506104fa565b601f1984166104a88661027a565b60005b828110156104d0578489015182556001820191506020850194506020810190506104ab565b868310156104ed57848901516104e9601f8916826103f6565b8355505b6001600288020188555050505b505050505050565b600073ffffffffffffffffffffffffffffffffffffffff82169050919050565b600061052d82610502565b9050919050565b61053d81610522565b82525050565b60006020820190506105586000830184610534565b92915050565b612f388061056d6000396000f3fe60806040526004361061014f5760003560e01c806388fc23c2116100b6578063cfbd48851161006f578063cfbd488514610537578063d839b31e14610560578063dd62ed3e1461059e578063dda56b0f146105db578063f2fde38b14610604578063f5da210c1461062d5761018f565b806388fc23c2146103eb5780638da5cb5b1461042957806395d89b41146104545780639a9c1bb11461047f578063a0e32870146104bc578063a9059cbb146104fa5761018f565b8063313ce56711610108578063313ce567146102f157806340c10f191461031c578063502d43871461034557806370a082311461036e578063715018a6146103ab578063794b69ce146103c25761018f565b806306fdde03146101cf57806309596616146101fa578063095ea7b3146102235780630c9848321461026057806318160ddd1461028957806323b872dd146102b45761018f565b3661018f577fa419615bc8fda4c87663805ee2a3597a6d71c1d476911d9892f340d965bc7bf1333460405161018592919061220a565b60405180910390a1005b7faca09dd456ca888dccf8cc966e382e6e3042bb7e4d2d7815015f844edeafce4233346000366040516101c59493929190612291565b60405180910390a1005b3480156101db57600080fd5b506101e461066d565b6040516101f19190612350565b60405180910390f35b34801561020657600080fd5b50610221600480360381019061021c91906123cf565b6106ff565b005b34801561022f57600080fd5b5061024a600480360381019061024591906123cf565b610936565b604051610257919061242a565b60405180910390f35b34801561026c57600080fd5b5061028760048036038101906102829190612445565b610959565b005b34801561029557600080fd5b5061029e6109bc565b6040516102ab9190612472565b60405180910390f35b3480156102c057600080fd5b506102db60048036038101906102d6919061248d565b6109c6565b6040516102e8919061242a565b60405180910390f35b3480156102fd57600080fd5b506103066109f5565b60405161031391906124fc565b60405180910390f35b34801561032857600080fd5b50610343600480360381019061033e91906123cf565b6109fe565b005b34801561035157600080fd5b5061036c600480360381019061036791906123cf565b610a98565b005b34801561037a57600080fd5b5061039560048036038101906103909190612445565b610df9565b6040516103a29190612472565b60405180910390f35b3480156103b757600080fd5b506103c0610e41565b005b3480156103ce57600080fd5b506103e960048036038101906103e49190612445565b610e55565b005b3480156103f757600080fd5b50610412600480360381019061040d9190612445565b610fd7565b6040516104209291906125d5565b60405180910390f35b34801561043557600080fd5b5061043e611229565b60405161044b919061260c565b60405180910390f35b34801561046057600080fd5b50610469611253565b6040516104769190612350565b60405180910390f35b34801561048b57600080fd5b506104a660048036038101906104a19190612445565b6112e5565b6040516104b39190612472565b60405180910390f35b3480156104c857600080fd5b506104e360048036038101906104de9190612445565b6113c7565b6040516104f1929190612627565b60405180910390f35b34801561050657600080fd5b50610521600480360381019061051c91906123cf565b61147a565b60405161052e919061242a565b60405180910390f35b34801561054357600080fd5b5061055e60048036038101906105599190612445565b61149d565b005b34801561056c57600080fd5b50610587600480360381019061058291906123cf565b611500565b604051610595929190612650565b60405180910390f35b3480156105aa57600080fd5b506105c560048036038101906105c09190612679565b611541565b6040516105d29190612472565b60405180910390f35b3480156105e757600080fd5b5061060260048036038101906105fd91906123cf565b6115c8565b005b34801561061057600080fd5b5061062b60048036038101906106269190612445565b61188a565b005b34801561063957600080fd5b50610654600480360381019061064f9190612445565b611910565b60405161066494939291906126b9565b60405180910390f35b60606003805461067c9061272d565b80601f01602080910402602001604051908101604052809291908181526020018280546106a89061272d565b80156106f55780601f106106ca576101008083540402835291602001916106f5565b820191906000526020600020905b8154815290600101906020018083116106d857829003601f168201915b5050505050905090565b6107076119c1565b61070f611229565b73ffffffffffffffffffffffffffffffffffffffff168273ffffffffffffffffffffffffffffffffffffffff160361077c576040517f08c379a0000000000000000000000000000000000000000000000000000000008152600401610773906127d0565b60405180910390fd5b600081116107bf576040517f08c379a00000000000000000000000000000000000000000000000000000000081526004016107b690612862565b60405180910390fd5b60011515600660008473ffffffffffffffffffffffffffffffffffffffff1673ffffffffffffffffffffffffffffffffffffffff16815260200190815260200160002060000160009054906101000a900460ff16151503610855576040517f08c379a000000000000000000000000000000000000000000000000000000000815260040161084c906128f4565b60405180910390fd5b604051806080016040528060011515815260200182815260200182815260200142815250600660008473ffffffffffffffffffffffffffffffffffffffff1673ffffffffffffffffffffffffffffffffffffffff16815260200190815260200160002060008201518160000160006101000a81548160ff0219169083151502179055506020820151816001015560408201518160020155606082015181600301559050507f3c955a3187c7e83dcbb8616841ccd3d715ab7a5e6928b8195535cced27e6f0b4828260405161092a92919061220a565b60405180910390a15050565b600080610941611a48565b905061094e818585611a50565b600191505092915050565b6109616119c1565b6001600960008373ffffffffffffffffffffffffffffffffffffffff1673ffffffffffffffffffffffffffffffffffffffff16815260200190815260200160002060006101000a81548160ff02191690831515021790555050565b6000600254905090565b6000806109d1611a48565b90506109de858285611a62565b6109e9858585611af6565b60019150509392505050565b60006012905090565b600960003373ffffffffffffffffffffffffffffffffffffffff1673ffffffffffffffffffffffffffffffffffffffff16815260200190815260200160002060009054906101000a900460ff16610a8a576040517f08c379a0000000000000000000000000000000000000000000000000000000008152600401610a8190612960565b60405180910390fd5b610a948282611bea565b5050565b8173ffffffffffffffffffffffffffffffffffffffff163373ffffffffffffffffffffffffffffffffffffffff1614610b06576040517f08c379a0000000000000000000000000000000000000000000000000000000008152600401610afd906129f2565b60405180910390fd5b60011515600660008473ffffffffffffffffffffffffffffffffffffffff1673ffffffffffffffffffffffffffffffffffffffff16815260200190815260200160002060000160009054906101000a900460ff16151514610b9c576040517f08c379a0000000000000000000000000000000000000000000000000000000008152600401610b9390612a84565b60405180910390fd5b6000600660008473ffffffffffffffffffffffffffffffffffffffff1673ffffffffffffffffffffffffffffffffffffffff16815260200190815260200160002090506000429050600062015180836003015483610bfa9190612ad3565b610c049190612b36565b90506000811115610c46576000836001015482610c219190612b67565b9050808460010154610c339190612ba9565b8460020181905550828460030181905550505b8260020154841115610c8d576040517f08c379a0000000000000000000000000000000000000000000000000000000008152600401610c8490612c4f565b60405180910390fd5b83836002016000828254610ca19190612ad3565b92505081905550610cb28585611bea565b83600760008773ffffffffffffffffffffffffffffffffffffffff1673ffffffffffffffffffffffffffffffffffffffff1681526020019081526020016000206000016000828254610d049190612ba9565b9250508190555060006040518060400160405280868152602001428152509050600860008773ffffffffffffffffffffffffffffffffffffffff1673ffffffffffffffffffffffffffffffffffffffff168152602001908152602001600020819080600181540180825580915050600190039060005260206000209060020201600090919091909150600082015181600001556020820151816001015550508573ffffffffffffffffffffffffffffffffffffffff167fb9144c96c86541f6fa89c9f2f02495cccf4b08cd6643e26d34ee00aa586558a886604051610de99190612472565b60405180910390a2505050505050565b60008060008373ffffffffffffffffffffffffffffffffffffffff1673ffffffffffffffffffffffffffffffffffffffff168152602001908152602001600020549050919050565b610e496119c1565b610e536000611c6c565b565b610e5d6119c1565b60011515600660008373ffffffffffffffffffffffffffffffffffffffff1673ffffffffffffffffffffffffffffffffffffffff16815260200190815260200160002060000160009054906101000a900460ff16151514610ef3576040517f08c379a0000000000000000000000000000000000000000000000000000000008152600401610eea90612a84565b60405180910390fd5b604051806080016040528060001515815260200160008152602001600081526020016000815250600660008373ffffffffffffffffffffffffffffffffffffffff1673ffffffffffffffffffffffffffffffffffffffff16815260200190815260200160002060008201518160000160006101000a81548160ff0219169083151502179055506020820151816001015560408201518160020155606082015181600301559050507f3c955a3187c7e83dcbb8616841ccd3d715ab7a5e6928b8195535cced27e6f0b4816000604051610fcc929190612cb4565b60405180910390a150565b6060806000600860008573ffffffffffffffffffffffffffffffffffffffff1673ffffffffffffffffffffffffffffffffffffffff16815260200190815260200160002080549050905060008111611064576040517f08c379a000000000000000000000000000000000000000000000000000000000815260040161105b90612d29565b60405180910390fd5b60008167ffffffffffffffff8111156110805761107f612d49565b5b6040519080825280602002602001820160405280156110ae5781602001602082028036833780820191505090505b50905060008267ffffffffffffffff8111156110cd576110cc612d49565b5b6040519080825280602002602001820160405280156110fb5781602001602082028036833780820191505090505b50905060005b8381101561121a57600860008873ffffffffffffffffffffffffffffffffffffffff1673ffffffffffffffffffffffffffffffffffffffff168152602001908152602001600020818154811061115a57611159612d78565b5b90600052602060002090600202016000015483828151811061117f5761117e612d78565b5b602002602001018181525050600860008873ffffffffffffffffffffffffffffffffffffffff1673ffffffffffffffffffffffffffffffffffffffff16815260200190815260200160002081815481106111dc576111db612d78565b5b90600052602060002090600202016001015482828151811061120157611200612d78565b5b6020026020010181815250508080600101915050611101565b50818194509450505050915091565b6000600560009054906101000a900473ffffffffffffffffffffffffffffffffffffffff16905090565b6060600480546112629061272d565b80601f016020809104026020016040519081016040528092919081815260200182805461128e9061272d565b80156112db5780601f106112b0576101008083540402835291602001916112db565b820191906000526020600020905b8154815290600101906020018083116112be57829003601f168201915b5050505050905090565b600060011515600660008473ffffffffffffffffffffffffffffffffffffffff1673ffffffffffffffffffffffffffffffffffffffff16815260200190815260200160002060000160009054906101000a900460ff1615151461137d576040517f08c379a000000000000000000000000000000000000000000000000000000000815260040161137490612a84565b60405180910390fd5b600760008373ffffffffffffffffffffffffffffffffffffffff1673ffffffffffffffffffffffffffffffffffffffff168152602001908152602001600020600001549050919050565b600080600660008473ffffffffffffffffffffffffffffffffffffffff1673ffffffffffffffffffffffffffffffffffffffff16815260200190815260200160002060000160009054906101000a900460ff161561146d576001600660008573ffffffffffffffffffffffffffffffffffffffff1673ffffffffffffffffffffffffffffffffffffffff1681526020019081526020016000206001015491509150611475565b600080915091505b915091565b600080611485611a48565b9050611492818585611af6565b600191505092915050565b6114a56119c1565b6000600960008373ffffffffffffffffffffffffffffffffffffffff1673ffffffffffffffffffffffffffffffffffffffff16815260200190815260200160002060006101000a81548160ff02191690831515021790555050565b6008602052816000526040600020818154811061151c57600080fd5b9060005260206000209060020201600091509150508060000154908060010154905082565b6000600160008473ffffffffffffffffffffffffffffffffffffffff1673ffffffffffffffffffffffffffffffffffffffff16815260200190815260200160002060008373ffffffffffffffffffffffffffffffffffffffff1673ffffffffffffffffffffffffffffffffffffffff16815260200190815260200160002054905092915050565b8173ffffffffffffffffffffffffffffffffffffffff163373ffffffffffffffffffffffffffffffffffffffff1614611636576040517f08c379a000000000000000000000000000000000000000000000000000000000815260040161162d906129f2565b60405180910390fd5b60011515600660008473ffffffffffffffffffffffffffffffffffffffff1673ffffffffffffffffffffffffffffffffffffffff16815260200190815260200160002060000160009054906101000a900460ff161515146116cc576040517f08c379a00000000000000000000000000000000000000000000000000000000081526004016116c390612a84565b60405180910390fd5b6000600760008473ffffffffffffffffffffffffffffffffffffffff1673ffffffffffffffffffffffffffffffffffffffff1681526020019081526020016000206000015411611751576040517f08c379a000000000000000000000000000000000000000000000000000000000815260040161174890612e19565b60405180910390fd5b80600760008473ffffffffffffffffffffffffffffffffffffffff1673ffffffffffffffffffffffffffffffffffffffff16815260200190815260200160002060000154116117d5576040517f08c379a00000000000000000000000000000000000000000000000000000000081526004016117cc90612eab565b60405180910390fd5b6117df8282611d32565b80600760008473ffffffffffffffffffffffffffffffffffffffff1673ffffffffffffffffffffffffffffffffffffffff16815260200190815260200160002060000160008282546118319190612ad3565b925050819055508173ffffffffffffffffffffffffffffffffffffffff167fb9144c96c86541f6fa89c9f2f02495cccf4b08cd6643e26d34ee00aa586558a88260405161187e9190612472565b60405180910390a25050565b6118926119c1565b600073ffffffffffffffffffffffffffffffffffffffff168173ffffffffffffffffffffffffffffffffffffffff16036119045760006040517f1e4fbdf70000000000000000000000000000000000000000000000000000000081526004016118fb919061260c565b60405180910390fd5b61190d81611c6c565b50565b6000806000806000600660008773ffffffffffffffffffffffffffffffffffffffff1673ffffffffffffffffffffffffffffffffffffffff1681526020019081526020016000206040518060800160405290816000820160009054906101000a900460ff161515151581526020016001820154815260200160028201548152602001600382015481525050905080600001518160200151826040015183606001519450945094509450509193509193565b6119c9611a48565b73ffffffffffffffffffffffffffffffffffffffff166119e7611229565b73ffffffffffffffffffffffffffffffffffffffff1614611a4657611a0a611a48565b6040517f118cdaa7000000000000000000000000000000000000000000000000000000008152600401611a3d919061260c565b60405180910390fd5b565b600033905090565b611a5d8383836001611db4565b505050565b6000611a6e8484611541565b90507fffffffffffffffffffffffffffffffffffffffffffffffffffffffffffffffff8114611af05781811015611ae0578281836040517ffb8f41b2000000000000000000000000000000000000000000000000000000008152600401611ad793929190612ecb565b60405180910390fd5b611aef84848484036000611db4565b5b50505050565b600073ffffffffffffffffffffffffffffffffffffffff168373ffffffffffffffffffffffffffffffffffffffff1603611b685760006040517f96c6fd1e000000000000000000000000000000000000000000000000000000008152600401611b5f919061260c565b60405180910390fd5b600073ffffffffffffffffffffffffffffffffffffffff168273ffffffffffffffffffffffffffffffffffffffff1603611bda5760006040517fec442f05000000000000000000000000000000000000000000000000000000008152600401611bd1919061260c565b60405180910390fd5b611be5838383611f8b565b505050565b600073ffffffffffffffffffffffffffffffffffffffff168273ffffffffffffffffffffffffffffffffffffffff1603611c5c5760006040517fec442f05000000000000000000000000000000000000000000000000000000008152600401611c53919061260c565b60405180910390fd5b611c6860008383611f8b565b5050565b6000600560009054906101000a900473ffffffffffffffffffffffffffffffffffffffff16905081600560006101000a81548173ffffffffffffffffffffffffffffffffffffffff021916908373ffffffffffffffffffffffffffffffffffffffff1602179055508173ffffffffffffffffffffffffffffffffffffffff168173ffffffffffffffffffffffffffffffffffffffff167f8be0079c531659141344cd1fd0a4f28419497f9722a3daafe3b4186f6b6457e060405160405180910390a35050565b600073ffffffffffffffffffffffffffffffffffffffff168273ffffffffffffffffffffffffffffffffffffffff1603611da45760006040517f96c6fd1e000000000000000000000000000000000000000000000000000000008152600401611d9b919061260c565b60405180910390fd5b611db082600083611f8b565b5050565b600073ffffffffffffffffffffffffffffffffffffffff168473ffffffffffffffffffffffffffffffffffffffff1603611e265760006040517fe602df05000000000000000000000000000000000000000000000000000000008152600401611e1d919061260c565b60405180910390fd5b600073ffffffffffffffffffffffffffffffffffffffff168373ffffffffffffffffffffffffffffffffffffffff1603611e985760006040517f94280d62000000000000000000000000000000000000000000000000000000008152600401611e8f919061260c565b60405180910390fd5b81600160008673ffffffffffffffffffffffffffffffffffffffff1673ffffffffffffffffffffffffffffffffffffffff16815260200190815260200160002060008573ffffffffffffffffffffffffffffffffffffffff1673ffffffffffffffffffffffffffffffffffffffff168152602001908152602001600020819055508015611f85578273ffffffffffffffffffffffffffffffffffffffff168473ffffffffffffffffffffffffffffffffffffffff167f8c5be1e5ebec7d5bd14f71427d1e84f3dd0314c0f7b2291e5b200ac8c7c3b92584604051611f7c9190612472565b60405180910390a35b50505050565b600073ffffffffffffffffffffffffffffffffffffffff168373ffffffffffffffffffffffffffffffffffffffff1603611fdd578060026000828254611fd19190612ba9565b925050819055506120b0565b60008060008573ffffffffffffffffffffffffffffffffffffffff1673ffffffffffffffffffffffffffffffffffffffff16815260200190815260200160002054905081811015612069578381836040517fe450d38c00000000000000000000000000000000000000000000000000000000815260040161206093929190612ecb565b60405180910390fd5b8181036000808673ffffffffffffffffffffffffffffffffffffffff1673ffffffffffffffffffffffffffffffffffffffff16815260200190815260200160002081905550505b600073ffffffffffffffffffffffffffffffffffffffff168273ffffffffffffffffffffffffffffffffffffffff16036120f95780600260008282540392505081905550612146565b806000808473ffffffffffffffffffffffffffffffffffffffff1673ffffffffffffffffffffffffffffffffffffffff168152602001908152602001600020600082825401925050819055505b8173ffffffffffffffffffffffffffffffffffffffff168373ffffffffffffffffffffffffffffffffffffffff167fddf252ad1be2c89b69c2b068fc378daa952ba7f163c4a11628f55a4df523b3ef836040516121a39190612472565b60405180910390a3505050565b600073ffffffffffffffffffffffffffffffffffffffff82169050919050565b60006121db826121b0565b9050919050565b6121eb816121d0565b82525050565b6000819050919050565b612204816121f1565b82525050565b600060408201905061221f60008301856121e2565b61222c60208301846121fb565b9392505050565b600082825260208201905092915050565b82818337600083830152505050565b6000601f19601f8301169050919050565b60006122708385612233565b935061227d838584612244565b61228683612253565b840190509392505050565b60006060820190506122a660008301876121e2565b6122b360208301866121fb565b81810360408301526122c6818486612264565b905095945050505050565b600081519050919050565b600082825260208201905092915050565b60005b8381101561230b5780820151818401526020810190506122f0565b60008484015250505050565b6000612322826122d1565b61232c81856122dc565b935061233c8185602086016122ed565b61234581612253565b840191505092915050565b6000602082019050818103600083015261236a8184612317565b905092915050565b600080fd5b612380816121d0565b811461238b57600080fd5b50565b60008135905061239d81612377565b92915050565b6123ac816121f1565b81146123b757600080fd5b50565b6000813590506123c9816123a3565b92915050565b600080604083850312156123e6576123e5612372565b5b60006123f48582860161238e565b9250506020612405858286016123ba565b9150509250929050565b60008115159050919050565b6124248161240f565b82525050565b600060208201905061243f600083018461241b565b92915050565b60006020828403121561245b5761245a612372565b5b60006124698482850161238e565b91505092915050565b600060208201905061248760008301846121fb565b92915050565b6000806000606084860312156124a6576124a5612372565b5b60006124b48682870161238e565b93505060206124c58682870161238e565b92505060406124d6868287016123ba565b9150509250925092565b600060ff82169050919050565b6124f6816124e0565b82525050565b600060208201905061251160008301846124ed565b92915050565b600081519050919050565b600082825260208201905092915050565b6000819050602082019050919050565b61254c816121f1565b82525050565b600061255e8383612543565b60208301905092915050565b6000602082019050919050565b600061258282612517565b61258c8185612522565b935061259783612533565b8060005b838110156125c85781516125af8882612552565b97506125ba8361256a565b92505060018101905061259b565b5085935050505092915050565b600060408201905081810360008301526125ef8185612577565b905081810360208301526126038184612577565b90509392505050565b600060208201905061262160008301846121e2565b92915050565b600060408201905061263c600083018561241b565b61264960208301846121fb565b9392505050565b600060408201905061266560008301856121fb565b61267260208301846121fb565b9392505050565b600080604083850312156126905761268f612372565b5b600061269e8582860161238e565b92505060206126af8582860161238e565b9150509250929050565b60006080820190506126ce600083018761241b565b6126db60208301866121fb565b6126e860408301856121fb565b6126f560608301846121fb565b95945050505050565b7f4e487b7100000000000000000000000000000000000000000000000000000000600052602260045260246000fd5b6000600282049050600182168061274557607f821691505b602082108103612758576127576126fe565b5b50919050565b7f4f776e65722063616e6e6f74206265207265676973746572656420617320612060008201527f636c69656e740000000000000000000000000000000000000000000000000000602082015250565b60006127ba6026836122dc565b91506127c58261275e565b604082019050919050565b600060208201905081810360008301526127e9816127ad565b9050919050565b7f4d696e7461626c65206e756d626572206d75737420626520677265617465722060008201527f7468616e207a65726f0000000000000000000000000000000000000000000000602082015250565b600061284c6029836122dc565b9150612857826127f0565b604082019050919050565b6000602082019050818103600083015261287b8161283f565b9050919050565b7f546869732061647265737320616c72656164792072656769737465726564206160008201527f73206120636c69656e7420616464726573732100000000000000000000000000602082015250565b60006128de6033836122dc565b91506128e982612882565b604082019050919050565b6000602082019050818103600083015261290d816128d1565b9050919050565b7f4e6f7420617574686f72697a656420746f206d696e7400000000000000000000600082015250565b600061294a6016836122dc565b915061295582612914565b602082019050919050565b600060208201905081810360008301526129798161293d565b9050919050565b7f556e617574686f72697a65643a204f6e6c7920746f6b656e206f776e6572206360008201527f616e206275726e20746865697220746f6b656e73000000000000000000000000602082015250565b60006129dc6034836122dc565b91506129e782612980565b604082019050919050565b60006020820190508181036000830152612a0b816129cf565b9050919050565b7f546869732061646472657373206973206e6f74206120636c69656e742061647260008201527f6573730000000000000000000000000000000000000000000000000000000000602082015250565b6000612a6e6023836122dc565b9150612a7982612a12565b604082019050919050565b60006020820190508181036000830152612a9d81612a61565b9050919050565b7f4e487b7100000000000000000000000000000000000000000000000000000000600052601160045260246000fd5b6000612ade826121f1565b9150612ae9836121f1565b9250828203905081811115612b0157612b00612aa4565b5b92915050565b7f4e487b7100000000000000000000000000000000000000000000000000000000600052601260045260246000fd5b6000612b41826121f1565b9150612b4c836121f1565b925082612b5c57612b5b612b07565b5b828204905092915050565b6000612b72826121f1565b9150612b7d836121f1565b9250828202612b8b816121f1565b91508282048414831517612ba257612ba1612aa4565b5b5092915050565b6000612bb4826121f1565b9150612bbf836121f1565b9250828201905080821115612bd757612bd6612aa4565b5b92915050565b7f416d6f756e74206578636565647320746865206d6178696d756d206d696e746160008201527f626c6520746f6b656e7320617661696c61626c65000000000000000000000000602082015250565b6000612c396034836122dc565b9150612c4482612bdd565b604082019050919050565b60006020820190508181036000830152612c6881612c2c565b9050919050565b6000819050919050565b6000819050919050565b6000612c9e612c99612c9484612c6f565b612c79565b6121f1565b9050919050565b612cae81612c83565b82525050565b6000604082019050612cc960008301856121e2565b612cd66020830184612ca5565b9392505050565b7f4e6f206d696e7420686973746f727920666f756e640000000000000000000000600082015250565b6000612d136015836122dc565b9150612d1e82612cdd565b602082019050919050565b60006020820190508181036000830152612d4281612d06565b9050919050565b7f4e487b7100000000000000000000000000000000000000000000000000000000600052604160045260246000fd5b7f4e487b7100000000000000000000000000000000000000000000000000000000600052603260045260246000fd5b7f43616e206e6f74206275726e20546f6b656e206173207468697320616464726560008201527f737320646f65736e2774206861766520616e7900000000000000000000000000602082015250565b6000612e036033836122dc565b9150612e0e82612da7565b604082019050919050565b60006020820190508181036000830152612e3281612df6565b9050919050565b7f43616e206e6f74206275726e206d6f726520546f6b656e207468616e2061646460008201527f7265737320676574000000000000000000000000000000000000000000000000602082015250565b6000612e956028836122dc565b9150612ea082612e39565b604082019050919050565b60006020820190508181036000830152612ec481612e88565b9050919050565b6000606082019050612ee060008301866121e2565b612eed60208301856121fb565b612efa60408301846121fb565b94935050505056fea26469706673582212205d8a7e3466241252bd19d1dc9d8c9ab928d38fdc36446bb34481deb17a2ae87964736f6c634300081b0033",
  "linkReferences": {},
  "deployedLinkReferences": {}
}