{
  "_format": "hh-sol-artifact-1",
  "contractName": "SunFi",
  "sourceName": "contracts/SunFi.sol",
  "abi": [
    {
      "inputs": [],
      "stateMutability": "payable",
      "type": "constructor"
    },
    {
      "inputs": [
        {
          "internalType": "address",
          "name": "spender",
          "type": "address"
        },
        {
          "internalType": "uint256",
          "name": "allowance",
          "type": "uint256"
        },
        {
          "internalType": "uint256",
          "name": "needed",
          "type": "uint256"
        }
      ],
      "name": "ERC20InsufficientAllowance",
      "type": "error"
    },
    {
      "inputs": [
        {
          "internalType": "address",
          "name": "sender",
          "type": "address"
        },
        {
          "internalType": "uint256",
          "name": "balance",
          "type": "uint256"
        },
        {
          "internalType": "uint256",
          "name": "needed",
          "type": "uint256"
        }
      ],
      "name": "ERC20InsufficientBalance",
      "type": "error"
    },
    {
      "inputs": [
        {
          "internalType": "address",
          "name": "approver",
          "type": "address"
        }
      ],
      "name": "ERC20InvalidApprover",
      "type": "error"
    },
    {
      "inputs": [
        {
          "internalType": "address",
          "name": "receiver",
          "type": "address"
        }
      ],
      "name": "ERC20InvalidReceiver",
      "type": "error"
    },
    {
      "inputs": [
        {
          "internalType": "address",
          "name": "sender",
          "type": "address"
        }
      ],
      "name": "ERC20InvalidSender",
      "type": "error"
    },
    {
      "inputs": [
        {
          "internalType": "address",
          "name": "spender",
          "type": "address"
        }
      ],
      "name": "ERC20InvalidSpender",
      "type": "error"
    },
    {
      "inputs": [
        {
          "internalType": "address",
          "name": "owner",
          "type": "address"
        }
      ],
      "name": "OwnableInvalidOwner",
      "type": "error"
    },
    {
      "inputs": [
        {
          "internalType": "address",
          "name": "account",
          "type": "address"
        }
      ],
      "name": "OwnableUnauthorizedAccount",
      "type": "error"
    },
    {
      "anonymous": false,
      "inputs": [
        {
          "indexed": true,
          "internalType": "address",
          "name": "owner",
          "type": "address"
        },
        {
          "indexed": true,
          "internalType": "address",
          "name": "spender",
          "type": "address"
        },
        {
          "indexed": false,
          "internalType": "uint256",
          "name": "value",
          "type": "uint256"
        }
      ],
      "name": "Approval",
      "type": "event"
    },
    {
      "anonymous": false,
      "inputs": [
        {
          "indexed": false,
          "internalType": "address",
          "name": "clientAdress",
          "type": "address"
        },
        {
          "indexed": false,
          "internalType": "uint256",
          "name": "maxMintable",
          "type": "uint256"
        }
      ],
      "name": "ClientRegistered",
      "type": "event"
    },
    {
      "anonymous": false,
      "inputs": [
        {
          "indexed": false,
          "internalType": "address",
          "name": "sender",
          "type": "address"
        },
        {
          "indexed": false,
          "internalType": "uint256",
          "name": "amount",
          "type": "uint256"
        },
        {
          "indexed": false,
          "internalType": "bytes",
          "name": "data",
          "type": "bytes"
        }
      ],
      "name": "FallbackCalled",
      "type": "event"
    },
    {
      "anonymous": false,
      "inputs": [
        {
          "indexed": true,
          "internalType": "address",
          "name": "client",
          "type": "address"
        },
        {
          "indexed": false,
          "internalType": "uint256",
          "name": "newMaxMintable",
          "type": "uint256"
        }
      ],
      "name": "MaxMintableUpdated",
      "type": "event"
    },
    {
      "anonymous": false,
      "inputs": [
        {
          "indexed": true,
          "internalType": "address",
          "name": "previousOwner",
          "type": "address"
        },
        {
          "indexed": true,
          "internalType": "address",
          "name": "newOwner",
          "type": "address"
        }
      ],
      "name": "OwnershipTransferred",
      "type": "event"
    },
    {
      "anonymous": false,
      "inputs": [
        {
          "indexed": false,
          "internalType": "address",
          "name": "sender",
          "type": "address"
        },
        {
          "indexed": false,
          "internalType": "uint256",
          "name": "amount",
          "type": "uint256"
        }
      ],
      "name": "ReceivedEther",
      "type": "event"
    },
    {
      "anonymous": false,
      "inputs": [
        {
          "indexed": true,
          "internalType": "address",
          "name": "recipient",
          "type": "address"
        },
        {
          "indexed": false,
          "internalType": "uint256",
          "name": "amount",
          "type": "uint256"
        }
      ],
      "name": "TokenMinted",
      "type": "event"
    },
    {
      "anonymous": false,
      "inputs": [
        {
          "indexed": true,
          "internalType": "address",
          "name": "from",
          "type": "address"
        },
        {
          "indexed": true,
          "internalType": "address",
          "name": "to",
          "type": "address"
        },
        {
          "indexed": false,
          "internalType": "uint256",
          "name": "value",
          "type": "uint256"
        }
      ],
      "name": "Transfer",
      "type": "event"
    },
    {
      "stateMutability": "payable",
      "type": "fallback"
    },
    {
      "inputs": [
        {
          "internalType": "address",
          "name": "_addr",
          "type": "address"
        },
        {
          "internalType": "uint256",
          "name": "_mintableNbr",
          "type": "uint256"
        }
      ],
      "name": "addClient",
      "outputs": [],
      "stateMutability": "nonpayable",
      "type": "function"
    },
    {
      "inputs": [
        {
          "internalType": "address",
          "name": "owner",
          "type": "address"
        },
        {
          "internalType": "address",
          "name": "spender",
          "type": "address"
        }
      ],
      "name": "allowance",
      "outputs": [
        {
          "internalType": "uint256",
          "name": "",
          "type": "uint256"
        }
      ],
      "stateMutability": "view",
      "type": "function"
    },
    {
      "inputs": [
        {
          "internalType": "address",
          "name": "spender",
          "type": "address"
        },
        {
          "internalType": "uint256",
          "name": "value",
          "type": "uint256"
        }
      ],
      "name": "approve",
      "outputs": [
        {
          "internalType": "bool",
          "name": "",
          "type": "bool"
        }
      ],
      "stateMutability": "nonpayable",
      "type": "function"
    },
    {
      "inputs": [
        {
          "internalType": "address",
          "name": "account",
          "type": "address"
        }
      ],
      "name": "balanceOf",
      "outputs": [
        {
          "internalType": "uint256",
          "name": "",
          "type": "uint256"
        }
      ],
      "stateMutability": "view",
      "type": "function"
    },
    {
      "inputs": [
        {
          "internalType": "address",
          "name": "recipient",
          "type": "address"
        },
        {
          "internalType": "uint256",
          "name": "amount",
          "type": "uint256"
        }
      ],
      "name": "burnSunWattToken",
      "outputs": [],
      "stateMutability": "nonpayable",
      "type": "function"
    },
    {
      "inputs": [],
      "name": "decimals",
      "outputs": [
        {
          "internalType": "uint8",
          "name": "",
          "type": "uint8"
        }
      ],
      "stateMutability": "view",
      "type": "function"
    },
    {
      "inputs": [
        {
          "internalType": "address",
          "name": "_addr",
          "type": "address"
        }
      ],
      "name": "deleteClient",
      "outputs": [],
      "stateMutability": "nonpayable",
      "type": "function"
    },
    {
      "inputs": [
        {
          "internalType": "address",
          "name": "_addr",
          "type": "address"
        }
      ],
      "name": "getClient",
      "outputs": [
        {
          "internalType": "bool",
          "name": "isRegistered",
          "type": "bool"
        },
        {
          "internalType": "uint256",
          "name": "maxMintable",
          "type": "uint256"
        }
      ],
      "stateMutability": "view",
      "type": "function"
    },
    {
      "inputs": [
        {
          "internalType": "address",
          "name": "user",
          "type": "address"
        }
      ],
      "name": "getMintHistory",
      "outputs": [
        {
          "internalType": "uint256[]",
          "name": "",
          "type": "uint256[]"
        },
        {
          "internalType": "uint256[]",
          "name": "",
          "type": "uint256[]"
        }
      ],
      "stateMutability": "view",
      "type": "function"
    },
    {
      "inputs": [
        {
          "internalType": "address",
          "name": "recipient",
          "type": "address"
        },
        {
          "internalType": "uint256",
          "name": "amount",
          "type": "uint256"
        }
      ],
      "name": "getSunWattToken",
      "outputs": [],
      "stateMutability": "nonpayable",
      "type": "function"
    },
    {
      "inputs": [
        {
          "internalType": "address",
          "name": "_addr",
          "type": "address"
        }
      ],
      "name": "getTotalMinted",
      "outputs": [
        {
          "internalType": "uint256",
          "name": "",
          "type": "uint256"
        }
      ],
      "stateMutability": "view",
      "type": "function"
    },
    {
      "inputs": [
        {
          "internalType": "address",
          "name": "",
          "type": "address"
        },
        {
          "internalType": "uint256",
          "name": "",
          "type": "uint256"
        }
      ],
      "name": "mintHistory",
      "outputs": [
        {
          "internalType": "uint256",
          "name": "amount",
          "type": "uint256"
        },
        {
          "internalType": "uint256",
          "name": "timestamp",
          "type": "uint256"
        }
      ],
      "stateMutability": "view",
      "type": "function"
    },
    {
      "inputs": [],
      "name": "name",
      "outputs": [
        {
          "internalType": "string",
          "name": "",
          "type": "string"
        }
      ],
      "stateMutability": "view",
      "type": "function"
    },
    {
      "inputs": [],
      "name": "owner",
      "outputs": [
        {
          "internalType": "address",
          "name": "",
          "type": "address"
        }
      ],
      "stateMutability": "view",
      "type": "function"
    },
    {
      "inputs": [],
      "name": "renounceOwnership",
      "outputs": [],
      "stateMutability": "nonpayable",
      "type": "function"
    },
    {
      "inputs": [],
      "name": "symbol",
      "outputs": [
        {
          "internalType": "string",
          "name": "",
          "type": "string"
        }
      ],
      "stateMutability": "view",
      "type": "function"
    },
    {
      "inputs": [],
      "name": "totalSupply",
      "outputs": [
        {
          "internalType": "uint256",
          "name": "",
          "type": "uint256"
        }
      ],
      "stateMutability": "view",
      "type": "function"
    },
    {
      "inputs": [
        {
          "internalType": "address",
          "name": "to",
          "type": "address"
        },
        {
          "internalType": "uint256",
          "name": "value",
          "type": "uint256"
        }
      ],
      "name": "transfer",
      "outputs": [
        {
          "internalType": "bool",
          "name": "",
          "type": "bool"
        }
      ],
      "stateMutability": "nonpayable",
      "type": "function"
    },
    {
      "inputs": [
        {
          "internalType": "address",
          "name": "from",
          "type": "address"
        },
        {
          "internalType": "address",
          "name": "to",
          "type": "address"
        },
        {
          "internalType": "uint256",
          "name": "value",
          "type": "uint256"
        }
      ],
      "name": "transferFrom",
      "outputs": [
        {
          "internalType": "bool",
          "name": "",
          "type": "bool"
        }
      ],
      "stateMutability": "nonpayable",
      "type": "function"
    },
    {
      "inputs": [
        {
          "internalType": "address",
          "name": "newOwner",
          "type": "address"
        }
      ],
      "name": "transferOwnership",
      "outputs": [],
      "stateMutability": "nonpayable",
      "type": "function"
    },
    {
      "stateMutability": "payable",
      "type": "receive"
    }
  ],
  "bytecode": "0x6080604052336040518060400160405280600781526020017f53756e57617474000000000000000000000000000000000000000000000000008152506040518060400160405280600381526020017f4b5748000000000000000000000000000000000000000000000000000000000081525081600390816100809190610430565b5080600490816100909190610430565b505050600073ffffffffffffffffffffffffffffffffffffffff168173ffffffffffffffffffffffffffffffffffffffff16036101055760006040517f1e4fbdf70000000000000000000000000000000000000000000000000000000081526004016100fc9190610543565b60405180910390fd5b6101148161011a60201b60201c565b5061055e565b6000600560009054906101000a900473ffffffffffffffffffffffffffffffffffffffff16905081600560006101000a81548173ffffffffffffffffffffffffffffffffffffffff021916908373ffffffffffffffffffffffffffffffffffffffff1602179055508173ffffffffffffffffffffffffffffffffffffffff168173ffffffffffffffffffffffffffffffffffffffff167f8be0079c531659141344cd1fd0a4f28419497f9722a3daafe3b4186f6b6457e060405160405180910390a35050565b600081519050919050565b7f4e487b7100000000000000000000000000000000000000000000000000000000600052604160045260246000fd5b7f4e487b7100000000000000000000000000000000000000000000000000000000600052602260045260246000fd5b6000600282049050600182168061026157607f821691505b6020821081036102745761027361021a565b5b50919050565b60008190508160005260206000209050919050565b60006020601f8301049050919050565b600082821b905092915050565b6000600883026102dc7fffffffffffffffffffffffffffffffffffffffffffffffffffffffffffffffff8261029f565b6102e6868361029f565b95508019841693508086168417925050509392505050565b6000819050919050565b6000819050919050565b600061032d610328610323846102fe565b610308565b6102fe565b9050919050565b6000819050919050565b61034783610312565b61035b61035382610334565b8484546102ac565b825550505050565b600090565b610370610363565b61037b81848461033e565b505050565b5b8181101561039f57610394600082610368565b600181019050610381565b5050565b601f8211156103e4576103b58161027a565b6103be8461028f565b810160208510156103cd578190505b6103e16103d98561028f565b830182610380565b50505b505050565b600082821c905092915050565b6000610407600019846008026103e9565b1980831691505092915050565b600061042083836103f6565b9150826002028217905092915050565b610439826101e0565b67ffffffffffffffff811115610452576104516101eb565b5b61045c8254610249565b6104678282856103a3565b600060209050601f83116001811461049a5760008415610488578287015190505b6104928582610414565b8655506104fa565b601f1984166104a88661027a565b60005b828110156104d0578489015182556001820191506020850194506020810190506104ab565b868310156104ed57848901516104e9601f8916826103f6565b8355505b6001600288020188555050505b505050505050565b600073ffffffffffffffffffffffffffffffffffffffff82169050919050565b600061052d82610502565b9050919050565b61053d81610522565b82525050565b60006020820190506105586000830184610534565b92915050565b61294e8061056d6000396000f3fe6080604052600436106101235760003560e01c806388fc23c2116100a0578063a9059cbb11610064578063a9059cbb1461047c578063d839b31e146104b9578063dd62ed3e146104f7578063dda56b0f14610534578063f2fde38b1461055d57610163565b806388fc23c21461036d5780638da5cb5b146103ab57806395d89b41146103d65780639a9c1bb114610401578063a0e328701461043e57610163565b8063313ce567116100e7578063313ce5671461029c578063502d4387146102c757806370a08231146102f0578063715018a61461032d578063794b69ce1461034457610163565b806306fdde03146101a357806309596616146101ce578063095ea7b3146101f757806318160ddd1461023457806323b872dd1461025f57610163565b36610163577fa419615bc8fda4c87663805ee2a3597a6d71c1d476911d9892f340d965bc7bf13334604051610159929190611e05565b60405180910390a1005b7faca09dd456ca888dccf8cc966e382e6e3042bb7e4d2d7815015f844edeafce4233346000366040516101999493929190611e8c565b60405180910390a1005b3480156101af57600080fd5b506101b8610586565b6040516101c59190611f4b565b60405180910390f35b3480156101da57600080fd5b506101f560048036038101906101f09190611fca565b610618565b005b34801561020357600080fd5b5061021e60048036038101906102199190611fca565b610851565b60405161022b9190612025565b60405180910390f35b34801561024057600080fd5b50610249610874565b6040516102569190612040565b60405180910390f35b34801561026b57600080fd5b506102866004803603810190610281919061205b565b61087e565b6040516102939190612025565b60405180910390f35b3480156102a857600080fd5b506102b16108ad565b6040516102be91906120ca565b60405180910390f35b3480156102d357600080fd5b506102ee60048036038101906102e99190611fca565b6108b6565b005b3480156102fc57600080fd5b50610317600480360381019061031291906120e5565b610b08565b6040516103249190612040565b60405180910390f35b34801561033957600080fd5b50610342610b50565b005b34801561035057600080fd5b5061036b600480360381019061036691906120e5565b610b64565b005b34801561037957600080fd5b50610394600480360381019061038f91906120e5565b610ce6565b6040516103a29291906121d0565b60405180910390f35b3480156103b757600080fd5b506103c0610f38565b6040516103cd9190612207565b60405180910390f35b3480156103e257600080fd5b506103eb610f62565b6040516103f89190611f4b565b60405180910390f35b34801561040d57600080fd5b50610428600480360381019061042391906120e5565b610ff4565b6040516104359190612040565b60405180910390f35b34801561044a57600080fd5b50610465600480360381019061046091906120e5565b6110d6565b604051610473929190612222565b60405180910390f35b34801561048857600080fd5b506104a3600480360381019061049e9190611fca565b611189565b6040516104b09190612025565b60405180910390f35b3480156104c557600080fd5b506104e060048036038101906104db9190611fca565b6111ac565b6040516104ee92919061224b565b60405180910390f35b34801561050357600080fd5b5061051e60048036038101906105199190612274565b6111ed565b60405161052b9190612040565b60405180910390f35b34801561054057600080fd5b5061055b60048036038101906105569190611fca565b611274565b005b34801561056957600080fd5b50610584600480360381019061057f91906120e5565b611536565b005b606060038054610595906122e3565b80601f01602080910402602001604051908101604052809291908181526020018280546105c1906122e3565b801561060e5780601f106105e35761010080835404028352916020019161060e565b820191906000526020600020905b8154815290600101906020018083116105f157829003601f168201915b5050505050905090565b6106206115bc565b610628610f38565b73ffffffffffffffffffffffffffffffffffffffff168273ffffffffffffffffffffffffffffffffffffffff1603610695576040517f08c379a000000000000000000000000000000000000000000000000000000000815260040161068c90612386565b60405180910390fd5b600081116106d8576040517f08c379a00000000000000000000000000000000000000000000000000000000081526004016106cf90612418565b60405180910390fd5b60011515600660008473ffffffffffffffffffffffffffffffffffffffff1673ffffffffffffffffffffffffffffffffffffffff16815260200190815260200160002060000160009054906101000a900460ff1615150361076e576040517f08c379a0000000000000000000000000000000000000000000000000000000008152600401610765906124aa565b60405180910390fd5b6040518060800160405280600115158152602001828152602001600081526020016000815250600660008473ffffffffffffffffffffffffffffffffffffffff1673ffffffffffffffffffffffffffffffffffffffff16815260200190815260200160002060008201518160000160006101000a81548160ff0219169083151502179055506020820151816001015560408201518160020155606082015181600301559050507f3c955a3187c7e83dcbb8616841ccd3d715ab7a5e6928b8195535cced27e6f0b48282604051610845929190611e05565b60405180910390a15050565b60008061085c611643565b905061086981858561164b565b600191505092915050565b6000600254905090565b600080610889611643565b905061089685828561165d565b6108a18585856116f1565b60019150509392505050565b60006012905090565b8173ffffffffffffffffffffffffffffffffffffffff163373ffffffffffffffffffffffffffffffffffffffff1614610924576040517f08c379a000000000000000000000000000000000000000000000000000000000815260040161091b9061253c565b60405180910390fd5b60011515600660008473ffffffffffffffffffffffffffffffffffffffff1673ffffffffffffffffffffffffffffffffffffffff16815260200190815260200160002060000160009054906101000a900460ff161515146109ba576040517f08c379a00000000000000000000000000000000000000000000000000000000081526004016109b1906125ce565b60405180910390fd5b6109c482826117e5565b80600760008473ffffffffffffffffffffffffffffffffffffffff1673ffffffffffffffffffffffffffffffffffffffff1681526020019081526020016000206000016000828254610a16919061261d565b9250508190555060006040518060400160405280838152602001428152509050600860008473ffffffffffffffffffffffffffffffffffffffff1673ffffffffffffffffffffffffffffffffffffffff168152602001908152602001600020819080600181540180825580915050600190039060005260206000209060020201600090919091909150600082015181600001556020820151816001015550508273ffffffffffffffffffffffffffffffffffffffff167fb9144c96c86541f6fa89c9f2f02495cccf4b08cd6643e26d34ee00aa586558a883604051610afb9190612040565b60405180910390a2505050565b60008060008373ffffffffffffffffffffffffffffffffffffffff1673ffffffffffffffffffffffffffffffffffffffff168152602001908152602001600020549050919050565b610b586115bc565b610b626000611867565b565b610b6c6115bc565b60011515600660008373ffffffffffffffffffffffffffffffffffffffff1673ffffffffffffffffffffffffffffffffffffffff16815260200190815260200160002060000160009054906101000a900460ff16151514610c02576040517f08c379a0000000000000000000000000000000000000000000000000000000008152600401610bf9906125ce565b60405180910390fd5b604051806080016040528060001515815260200160008152602001600081526020016000815250600660008373ffffffffffffffffffffffffffffffffffffffff1673ffffffffffffffffffffffffffffffffffffffff16815260200190815260200160002060008201518160000160006101000a81548160ff0219169083151502179055506020820151816001015560408201518160020155606082015181600301559050507f3c955a3187c7e83dcbb8616841ccd3d715ab7a5e6928b8195535cced27e6f0b4816000604051610cdb929190612696565b60405180910390a150565b6060806000600860008573ffffffffffffffffffffffffffffffffffffffff1673ffffffffffffffffffffffffffffffffffffffff16815260200190815260200160002080549050905060008111610d73576040517f08c379a0000000000000000000000000000000000000000000000000000000008152600401610d6a9061270b565b60405180910390fd5b60008167ffffffffffffffff811115610d8f57610d8e61272b565b5b604051908082528060200260200182016040528015610dbd5781602001602082028036833780820191505090505b50905060008267ffffffffffffffff811115610ddc57610ddb61272b565b5b604051908082528060200260200182016040528015610e0a5781602001602082028036833780820191505090505b50905060005b83811015610f2957600860008873ffffffffffffffffffffffffffffffffffffffff1673ffffffffffffffffffffffffffffffffffffffff1681526020019081526020016000208181548110610e6957610e6861275a565b5b906000526020600020906002020160000154838281518110610e8e57610e8d61275a565b5b602002602001018181525050600860008873ffffffffffffffffffffffffffffffffffffffff1673ffffffffffffffffffffffffffffffffffffffff1681526020019081526020016000208181548110610eeb57610eea61275a565b5b906000526020600020906002020160010154828281518110610f1057610f0f61275a565b5b6020026020010181815250508080600101915050610e10565b50818194509450505050915091565b6000600560009054906101000a900473ffffffffffffffffffffffffffffffffffffffff16905090565b606060048054610f71906122e3565b80601f0160208091040260200160405190810160405280929190818152602001828054610f9d906122e3565b8015610fea5780601f10610fbf57610100808354040283529160200191610fea565b820191906000526020600020905b815481529060010190602001808311610fcd57829003601f168201915b5050505050905090565b600060011515600660008473ffffffffffffffffffffffffffffffffffffffff1673ffffffffffffffffffffffffffffffffffffffff16815260200190815260200160002060000160009054906101000a900460ff1615151461108c576040517f08c379a0000000000000000000000000000000000000000000000000000000008152600401611083906125ce565b60405180910390fd5b600760008373ffffffffffffffffffffffffffffffffffffffff1673ffffffffffffffffffffffffffffffffffffffff168152602001908152602001600020600001549050919050565b600080600660008473ffffffffffffffffffffffffffffffffffffffff1673ffffffffffffffffffffffffffffffffffffffff16815260200190815260200160002060000160009054906101000a900460ff161561117c576001600660008573ffffffffffffffffffffffffffffffffffffffff1673ffffffffffffffffffffffffffffffffffffffff1681526020019081526020016000206001015491509150611184565b600080915091505b915091565b600080611194611643565b90506111a18185856116f1565b600191505092915050565b600860205281600052604060002081815481106111c857600080fd5b9060005260206000209060020201600091509150508060000154908060010154905082565b6000600160008473ffffffffffffffffffffffffffffffffffffffff1673ffffffffffffffffffffffffffffffffffffffff16815260200190815260200160002060008373ffffffffffffffffffffffffffffffffffffffff1673ffffffffffffffffffffffffffffffffffffffff16815260200190815260200160002054905092915050565b8173ffffffffffffffffffffffffffffffffffffffff163373ffffffffffffffffffffffffffffffffffffffff16146112e2576040517f08c379a00000000000000000000000000000000000000000000000000000000081526004016112d99061253c565b60405180910390fd5b60011515600660008473ffffffffffffffffffffffffffffffffffffffff1673ffffffffffffffffffffffffffffffffffffffff16815260200190815260200160002060000160009054906101000a900460ff16151514611378576040517f08c379a000000000000000000000000000000000000000000000000000000000815260040161136f906125ce565b60405180910390fd5b6000600760008473ffffffffffffffffffffffffffffffffffffffff1673ffffffffffffffffffffffffffffffffffffffff16815260200190815260200160002060000154116113fd576040517f08c379a00000000000000000000000000000000000000000000000000000000081526004016113f4906127fb565b60405180910390fd5b80600760008473ffffffffffffffffffffffffffffffffffffffff1673ffffffffffffffffffffffffffffffffffffffff1681526020019081526020016000206000015411611481576040517f08c379a00000000000000000000000000000000000000000000000000000000081526004016114789061288d565b60405180910390fd5b61148b828261192d565b80600760008473ffffffffffffffffffffffffffffffffffffffff1673ffffffffffffffffffffffffffffffffffffffff16815260200190815260200160002060000160008282546114dd91906128ad565b925050819055508173ffffffffffffffffffffffffffffffffffffffff167fb9144c96c86541f6fa89c9f2f02495cccf4b08cd6643e26d34ee00aa586558a88260405161152a9190612040565b60405180910390a25050565b61153e6115bc565b600073ffffffffffffffffffffffffffffffffffffffff168173ffffffffffffffffffffffffffffffffffffffff16036115b05760006040517f1e4fbdf70000000000000000000000000000000000000000000000000000000081526004016115a79190612207565b60405180910390fd5b6115b981611867565b50565b6115c4611643565b73ffffffffffffffffffffffffffffffffffffffff166115e2610f38565b73ffffffffffffffffffffffffffffffffffffffff161461164157611605611643565b6040517f118cdaa70000000000000000000000000000000000000000000000000000000081526004016116389190612207565b60405180910390fd5b565b600033905090565b61165883838360016119af565b505050565b600061166984846111ed565b90507fffffffffffffffffffffffffffffffffffffffffffffffffffffffffffffffff81146116eb57818110156116db578281836040517ffb8f41b20000000000000000000000000000000000000000000000000000000081526004016116d2939291906128e1565b60405180910390fd5b6116ea848484840360006119af565b5b50505050565b600073ffffffffffffffffffffffffffffffffffffffff168373ffffffffffffffffffffffffffffffffffffffff16036117635760006040517f96c6fd1e00000000000000000000000000000000000000000000000000000000815260040161175a9190612207565b60405180910390fd5b600073ffffffffffffffffffffffffffffffffffffffff168273ffffffffffffffffffffffffffffffffffffffff16036117d55760006040517fec442f050000000000000000000000000000000000000000000000000000000081526004016117cc9190612207565b60405180910390fd5b6117e0838383611b86565b505050565b600073ffffffffffffffffffffffffffffffffffffffff168273ffffffffffffffffffffffffffffffffffffffff16036118575760006040517fec442f0500000000000000000000000000000000000000000000000000000000815260040161184e9190612207565b60405180910390fd5b61186360008383611b86565b5050565b6000600560009054906101000a900473ffffffffffffffffffffffffffffffffffffffff16905081600560006101000a81548173ffffffffffffffffffffffffffffffffffffffff021916908373ffffffffffffffffffffffffffffffffffffffff1602179055508173ffffffffffffffffffffffffffffffffffffffff168173ffffffffffffffffffffffffffffffffffffffff167f8be0079c531659141344cd1fd0a4f28419497f9722a3daafe3b4186f6b6457e060405160405180910390a35050565b600073ffffffffffffffffffffffffffffffffffffffff168273ffffffffffffffffffffffffffffffffffffffff160361199f5760006040517f96c6fd1e0000000000000000000000000000000000000000000000000000000081526004016119969190612207565b60405180910390fd5b6119ab82600083611b86565b5050565b600073ffffffffffffffffffffffffffffffffffffffff168473ffffffffffffffffffffffffffffffffffffffff1603611a215760006040517fe602df05000000000000000000000000000000000000000000000000000000008152600401611a189190612207565b60405180910390fd5b600073ffffffffffffffffffffffffffffffffffffffff168373ffffffffffffffffffffffffffffffffffffffff1603611a935760006040517f94280d62000000000000000000000000000000000000000000000000000000008152600401611a8a9190612207565b60405180910390fd5b81600160008673ffffffffffffffffffffffffffffffffffffffff1673ffffffffffffffffffffffffffffffffffffffff16815260200190815260200160002060008573ffffffffffffffffffffffffffffffffffffffff1673ffffffffffffffffffffffffffffffffffffffff168152602001908152602001600020819055508015611b80578273ffffffffffffffffffffffffffffffffffffffff168473ffffffffffffffffffffffffffffffffffffffff167f8c5be1e5ebec7d5bd14f71427d1e84f3dd0314c0f7b2291e5b200ac8c7c3b92584604051611b779190612040565b60405180910390a35b50505050565b600073ffffffffffffffffffffffffffffffffffffffff168373ffffffffffffffffffffffffffffffffffffffff1603611bd8578060026000828254611bcc919061261d565b92505081905550611cab565b60008060008573ffffffffffffffffffffffffffffffffffffffff1673ffffffffffffffffffffffffffffffffffffffff16815260200190815260200160002054905081811015611c64578381836040517fe450d38c000000000000000000000000000000000000000000000000000000008152600401611c5b939291906128e1565b60405180910390fd5b8181036000808673ffffffffffffffffffffffffffffffffffffffff1673ffffffffffffffffffffffffffffffffffffffff16815260200190815260200160002081905550505b600073ffffffffffffffffffffffffffffffffffffffff168273ffffffffffffffffffffffffffffffffffffffff1603611cf45780600260008282540392505081905550611d41565b806000808473ffffffffffffffffffffffffffffffffffffffff1673ffffffffffffffffffffffffffffffffffffffff168152602001908152602001600020600082825401925050819055505b8173ffffffffffffffffffffffffffffffffffffffff168373ffffffffffffffffffffffffffffffffffffffff167fddf252ad1be2c89b69c2b068fc378daa952ba7f163c4a11628f55a4df523b3ef83604051611d9e9190612040565b60405180910390a3505050565b600073ffffffffffffffffffffffffffffffffffffffff82169050919050565b6000611dd682611dab565b9050919050565b611de681611dcb565b82525050565b6000819050919050565b611dff81611dec565b82525050565b6000604082019050611e1a6000830185611ddd565b611e276020830184611df6565b9392505050565b600082825260208201905092915050565b82818337600083830152505050565b6000601f19601f8301169050919050565b6000611e6b8385611e2e565b9350611e78838584611e3f565b611e8183611e4e565b840190509392505050565b6000606082019050611ea16000830187611ddd565b611eae6020830186611df6565b8181036040830152611ec1818486611e5f565b905095945050505050565b600081519050919050565b600082825260208201905092915050565b60005b83811015611f06578082015181840152602081019050611eeb565b60008484015250505050565b6000611f1d82611ecc565b611f278185611ed7565b9350611f37818560208601611ee8565b611f4081611e4e565b840191505092915050565b60006020820190508181036000830152611f658184611f12565b905092915050565b600080fd5b611f7b81611dcb565b8114611f8657600080fd5b50565b600081359050611f9881611f72565b92915050565b611fa781611dec565b8114611fb257600080fd5b50565b600081359050611fc481611f9e565b92915050565b60008060408385031215611fe157611fe0611f6d565b5b6000611fef85828601611f89565b925050602061200085828601611fb5565b9150509250929050565b60008115159050919050565b61201f8161200a565b82525050565b600060208201905061203a6000830184612016565b92915050565b60006020820190506120556000830184611df6565b92915050565b60008060006060848603121561207457612073611f6d565b5b600061208286828701611f89565b935050602061209386828701611f89565b92505060406120a486828701611fb5565b9150509250925092565b600060ff82169050919050565b6120c4816120ae565b82525050565b60006020820190506120df60008301846120bb565b92915050565b6000602082840312156120fb576120fa611f6d565b5b600061210984828501611f89565b91505092915050565b600081519050919050565b600082825260208201905092915050565b6000819050602082019050919050565b61214781611dec565b82525050565b6000612159838361213e565b60208301905092915050565b6000602082019050919050565b600061217d82612112565b612187818561211d565b93506121928361212e565b8060005b838110156121c35781516121aa888261214d565b97506121b583612165565b925050600181019050612196565b5085935050505092915050565b600060408201905081810360008301526121ea8185612172565b905081810360208301526121fe8184612172565b90509392505050565b600060208201905061221c6000830184611ddd565b92915050565b60006040820190506122376000830185612016565b6122446020830184611df6565b9392505050565b60006040820190506122606000830185611df6565b61226d6020830184611df6565b9392505050565b6000806040838503121561228b5761228a611f6d565b5b600061229985828601611f89565b92505060206122aa85828601611f89565b9150509250929050565b7f4e487b7100000000000000000000000000000000000000000000000000000000600052602260045260246000fd5b600060028204905060018216806122fb57607f821691505b60208210810361230e5761230d6122b4565b5b50919050565b7f4f776e65722063616e6e6f74206265207265676973746572656420617320612060008201527f636c69656e740000000000000000000000000000000000000000000000000000602082015250565b6000612370602683611ed7565b915061237b82612314565b604082019050919050565b6000602082019050818103600083015261239f81612363565b9050919050565b7f4d696e7461626c65206e756d626572206d75737420626520677265617465722060008201527f7468616e207a65726f0000000000000000000000000000000000000000000000602082015250565b6000612402602983611ed7565b915061240d826123a6565b604082019050919050565b60006020820190508181036000830152612431816123f5565b9050919050565b7f546869732061647265737320616c72656164792072656769737465726564206160008201527f73206120636c69656e7420616464726573732100000000000000000000000000602082015250565b6000612494603383611ed7565b915061249f82612438565b604082019050919050565b600060208201905081810360008301526124c381612487565b9050919050565b7f556e617574686f72697a65643a204f6e6c7920746f6b656e206f776e6572206360008201527f616e206275726e20746865697220746f6b656e73000000000000000000000000602082015250565b6000612526603483611ed7565b9150612531826124ca565b604082019050919050565b6000602082019050818103600083015261255581612519565b9050919050565b7f546869732061646472657373206973206e6f74206120636c69656e742061647260008201527f6573730000000000000000000000000000000000000000000000000000000000602082015250565b60006125b8602383611ed7565b91506125c38261255c565b604082019050919050565b600060208201905081810360008301526125e7816125ab565b9050919050565b7f4e487b7100000000000000000000000000000000000000000000000000000000600052601160045260246000fd5b600061262882611dec565b915061263383611dec565b925082820190508082111561264b5761264a6125ee565b5b92915050565b6000819050919050565b6000819050919050565b600061268061267b61267684612651565b61265b565b611dec565b9050919050565b61269081612665565b82525050565b60006040820190506126ab6000830185611ddd565b6126b86020830184612687565b9392505050565b7f4e6f206d696e7420686973746f727920666f756e640000000000000000000000600082015250565b60006126f5601583611ed7565b9150612700826126bf565b602082019050919050565b60006020820190508181036000830152612724816126e8565b9050919050565b7f4e487b7100000000000000000000000000000000000000000000000000000000600052604160045260246000fd5b7f4e487b7100000000000000000000000000000000000000000000000000000000600052603260045260246000fd5b7f43616e206e6f74206275726e20546f6b656e206173207468697320616464726560008201527f737320646f65736e2774206861766520616e7900000000000000000000000000602082015250565b60006127e5603383611ed7565b91506127f082612789565b604082019050919050565b60006020820190508181036000830152612814816127d8565b9050919050565b7f43616e206e6f74206275726e206d6f726520546f6b656e207468616e2061646460008201527f7265737320676574000000000000000000000000000000000000000000000000602082015250565b6000612877602883611ed7565b91506128828261281b565b604082019050919050565b600060208201905081810360008301526128a68161286a565b9050919050565b60006128b882611dec565b91506128c383611dec565b92508282039050818111156128db576128da6125ee565b5b92915050565b60006060820190506128f66000830186611ddd565b6129036020830185611df6565b6129106040830184611df6565b94935050505056fea264697066735822122086fe07f71e994b2f461f3869f485188afbd67153324957cbf17f62eb050610a264736f6c634300081b0033",
  "linkReferences": {},
  "deployedLinkReferences": {}
}