{
  "_format": "hh-sol-artifact-1",
  "contractName": "StakingContract",
  "sourceName": "contracts/StakingContract.sol",
  "abi": [
    {
      "inputs": [
        {
          "internalType": "address",
          "name": "_sunFiToken",
          "type": "address"
        }
      ],
      "stateMutability": "nonpayable",
      "type": "constructor"
    },
    {
      "inputs": [
        {
          "internalType": "address",
          "name": "owner",
          "type": "address"
        }
      ],
      "name": "OwnableInvalidOwner",
      "type": "error"
    },
    {
      "inputs": [
        {
          "internalType": "address",
          "name": "account",
          "type": "address"
        }
      ],
      "name": "OwnableUnauthorizedAccount",
      "type": "error"
    },
    {
      "anonymous": false,
      "inputs": [
        {
          "indexed": false,
          "internalType": "address",
          "name": "user",
          "type": "address"
        },
        {
          "indexed": false,
          "internalType": "uint256",
          "name": "amount",
          "type": "uint256"
        },
        {
          "indexed": false,
          "internalType": "bool",
          "name": "approved",
          "type": "bool"
        }
      ],
      "name": "Debug",
      "type": "event"
    },
    {
      "anonymous": false,
      "inputs": [
        {
          "indexed": false,
          "internalType": "uint256",
          "name": "newRate",
          "type": "uint256"
        }
      ],
      "name": "LiquidityRateUpdated",
      "type": "event"
    },
    {
      "anonymous": false,
      "inputs": [
        {
          "indexed": true,
          "internalType": "address",
          "name": "previousOwner",
          "type": "address"
        },
        {
          "indexed": true,
          "internalType": "address",
          "name": "newOwner",
          "type": "address"
        }
      ],
      "name": "OwnershipTransferred",
      "type": "event"
    },
    {
      "anonymous": false,
      "inputs": [
        {
          "indexed": true,
          "internalType": "address",
          "name": "user",
          "type": "address"
        },
        {
          "indexed": false,
          "internalType": "uint256",
          "name": "amount",
          "type": "uint256"
        }
      ],
      "name": "Staked",
      "type": "event"
    },
    {
      "anonymous": false,
      "inputs": [
        {
          "indexed": true,
          "internalType": "address",
          "name": "user",
          "type": "address"
        },
        {
          "indexed": false,
          "internalType": "uint256",
          "name": "amount",
          "type": "uint256"
        },
        {
          "indexed": false,
          "internalType": "uint256",
          "name": "rewards",
          "type": "uint256"
        }
      ],
      "name": "Unstaked",
      "type": "event"
    },
    {
      "inputs": [
        {
          "internalType": "address",
          "name": "",
          "type": "address"
        }
      ],
      "name": "availableTokens",
      "outputs": [
        {
          "internalType": "uint256",
          "name": "",
          "type": "uint256"
        }
      ],
      "stateMutability": "view",
      "type": "function"
    },
    {
      "inputs": [
        {
          "internalType": "address",
          "name": "_user",
          "type": "address"
        }
      ],
      "name": "calculateRewards",
      "outputs": [
        {
          "internalType": "uint256",
          "name": "",
          "type": "uint256"
        }
      ],
      "stateMutability": "view",
      "type": "function"
    },
    {
      "inputs": [
        {
          "internalType": "address",
          "name": "_user",
          "type": "address"
        }
      ],
      "name": "getAvailableTokens",
      "outputs": [
        {
          "internalType": "uint256",
          "name": "",
          "type": "uint256"
        }
      ],
      "stateMutability": "view",
      "type": "function"
    },
    {
      "inputs": [
        {
          "internalType": "address",
          "name": "user",
          "type": "address"
        }
      ],
      "name": "getStake",
      "outputs": [
        {
          "internalType": "uint256",
          "name": "amount",
          "type": "uint256"
        },
        {
          "internalType": "uint256",
          "name": "startTime",
          "type": "uint256"
        },
        {
          "internalType": "uint256",
          "name": "rewards",
          "type": "uint256"
        }
      ],
      "stateMutability": "view",
      "type": "function"
    },
    {
      "inputs": [],
      "name": "liquidityRate",
      "outputs": [
        {
          "internalType": "uint256",
          "name": "",
          "type": "uint256"
        }
      ],
      "stateMutability": "view",
      "type": "function"
    },
    {
      "inputs": [],
      "name": "owner",
      "outputs": [
        {
          "internalType": "address",
          "name": "",
          "type": "address"
        }
      ],
      "stateMutability": "view",
      "type": "function"
    },
    {
      "inputs": [],
      "name": "renounceOwnership",
      "outputs": [],
      "stateMutability": "nonpayable",
      "type": "function"
    },
    {
      "inputs": [
        {
          "internalType": "uint256",
          "name": "_amount",
          "type": "uint256"
        }
      ],
      "name": "stake",
      "outputs": [],
      "stateMutability": "nonpayable",
      "type": "function"
    },
    {
      "inputs": [
        {
          "internalType": "address",
          "name": "",
          "type": "address"
        }
      ],
      "name": "stakes",
      "outputs": [
        {
          "internalType": "uint256",
          "name": "amount",
          "type": "uint256"
        },
        {
          "internalType": "uint256",
          "name": "startTime",
          "type": "uint256"
        },
        {
          "internalType": "uint256",
          "name": "rewards",
          "type": "uint256"
        }
      ],
      "stateMutability": "view",
      "type": "function"
    },
    {
      "inputs": [],
      "name": "sunFiToken",
      "outputs": [
        {
          "internalType": "contract ISunFi",
          "name": "",
          "type": "address"
        }
      ],
      "stateMutability": "view",
      "type": "function"
    },
    {
      "inputs": [
        {
          "internalType": "address",
          "name": "newOwner",
          "type": "address"
        }
      ],
      "name": "transferOwnership",
      "outputs": [],
      "stateMutability": "nonpayable",
      "type": "function"
    },
    {
      "inputs": [],
      "name": "unstake",
      "outputs": [],
      "stateMutability": "nonpayable",
      "type": "function"
    }
  ],
  "bytecode": "0x608060405234801561001057600080fd5b506040516115ae3803806115ae83398181016040528101906100329190610302565b33600073ffffffffffffffffffffffffffffffffffffffff168173ffffffffffffffffffffffffffffffffffffffff16036100a55760006040517f1e4fbdf700000000000000000000000000000000000000000000000000000000815260040161009c919061033e565b60405180910390fd5b6100b4816101db60201b60201c565b5080600160006101000a81548173ffffffffffffffffffffffffffffffffffffffff021916908373ffffffffffffffffffffffffffffffffffffffff160217905550600160009054906101000a900473ffffffffffffffffffffffffffffffffffffffff1673ffffffffffffffffffffffffffffffffffffffff166370a08231336040518263ffffffff1660e01b8152600401610151919061033e565b602060405180830381865afa15801561016e573d6000803e3d6000fd5b505050506040513d601f19601f82011682018060405250810190610192919061038f565b600360003373ffffffffffffffffffffffffffffffffffffffff1673ffffffffffffffffffffffffffffffffffffffff16815260200190815260200160002081905550506103bc565b60008060009054906101000a900473ffffffffffffffffffffffffffffffffffffffff169050816000806101000a81548173ffffffffffffffffffffffffffffffffffffffff021916908373ffffffffffffffffffffffffffffffffffffffff1602179055508173ffffffffffffffffffffffffffffffffffffffff168173ffffffffffffffffffffffffffffffffffffffff167f8be0079c531659141344cd1fd0a4f28419497f9722a3daafe3b4186f6b6457e060405160405180910390a35050565b600080fd5b600073ffffffffffffffffffffffffffffffffffffffff82169050919050565b60006102cf826102a4565b9050919050565b6102df816102c4565b81146102ea57600080fd5b50565b6000815190506102fc816102d6565b92915050565b6000602082840312156103185761031761029f565b5b6000610326848285016102ed565b91505092915050565b610338816102c4565b82525050565b6000602082019050610353600083018461032f565b92915050565b6000819050919050565b61036c81610359565b811461037757600080fd5b50565b60008151905061038981610363565b92915050565b6000602082840312156103a5576103a461029f565b5b60006103b38482850161037a565b91505092915050565b6111e3806103cb6000396000f3fe608060405234801561001057600080fd5b50600436106100b45760003560e01c80637a766460116100715780637a7664601461016b57806380f22ae11461019d5780638da5cb5b146101cd57806394cb0947146101eb578063a694fc3a1461021b578063f2fde38b14610237576100b4565b806316934fc4146100b95780632def6620146100eb578063548cbeb0146100f557806359e4f0091461011357806364ab867514610131578063715018a614610161575b600080fd5b6100d360048036038101906100ce9190610c22565b610253565b6040516100e293929190610c68565b60405180910390f35b6100f361027d565b005b6100fd61051c565b60405161010a9190610c9f565b60405180910390f35b61011b610522565b6040516101289190610d19565b60405180910390f35b61014b60048036038101906101469190610c22565b610548565b6040516101589190610c9f565b60405180910390f35b610169610657565b005b61018560048036038101906101809190610c22565b61066b565b60405161019493929190610c68565b60405180910390f35b6101b760048036038101906101b29190610c22565b6106f8565b6040516101c49190610c9f565b60405180910390f35b6101d5610741565b6040516101e29190610d43565b60405180910390f35b61020560048036038101906102009190610c22565b61076a565b6040516102129190610c9f565b60405180910390f35b61023560048036038101906102309190610d8a565b610782565b005b610251600480360381019061024c9190610c22565b6109e6565b005b60026020528060005260406000206000915090508060000154908060010154908060020154905083565b6000600260003373ffffffffffffffffffffffffffffffffffffffff1673ffffffffffffffffffffffffffffffffffffffff16815260200190815260200160002090506000816000015411610307576040517f08c379a00000000000000000000000000000000000000000000000000000000081526004016102fe90610e14565b60405180910390fd5b6000816002015461031733610548565b6103219190610e63565b905060008183600001546103359190610e63565b9050600160009054906101000a900473ffffffffffffffffffffffffffffffffffffffff1673ffffffffffffffffffffffffffffffffffffffff166340c10f1933846040518363ffffffff1660e01b8152600401610394929190610e97565b600060405180830381600087803b1580156103ae57600080fd5b505af11580156103c2573d6000803e3d6000fd5b50505050600160009054906101000a900473ffffffffffffffffffffffffffffffffffffffff1673ffffffffffffffffffffffffffffffffffffffff1663a9059cbb3385600001546040518363ffffffff1660e01b8152600401610427929190610e97565b6020604051808303816000875af1158015610446573d6000803e3d6000fd5b505050506040513d601f19601f8201168201806040525081019061046a9190610ef8565b6104a9576040517f08c379a00000000000000000000000000000000000000000000000000000000081526004016104a090610f71565b60405180910390fd5b6000836000018190555060008360020181905550600083600101819055503373ffffffffffffffffffffffffffffffffffffffff167f7fc4727e062e336010f2c282598ef5f14facb3de68cf8195c2f23e1454b2b74e828460405161050f929190610f91565b60405180910390a2505050565b60045481565b600160009054906101000a900473ffffffffffffffffffffffffffffffffffffffff1681565b600080600260008473ffffffffffffffffffffffffffffffffffffffff1673ffffffffffffffffffffffffffffffffffffffff168152602001908152602001600020604051806060016040529081600082015481526020016001820154815260200160028201548152505090506000816000015114806105ca57506000600454145b156105d9576000915050610652565b60008160200151426105eb9190610fba565b905060006301e133806b033b2e3c9fd0803ce800000060045461060e9190610fee565b610618919061105f565b90506b033b2e3c9fd0803ce8000000828285600001516106389190610fee565b6106429190610fee565b61064c919061105f565b93505050505b919050565b61065f610a6c565b6106696000610af3565b565b600080600080600260008673ffffffffffffffffffffffffffffffffffffffff1673ffffffffffffffffffffffffffffffffffffffff16815260200190815260200160002060405180606001604052908160008201548152602001600182015481526020016002820154815250509050806000015181602001518260400151935093509350509193909250565b6000600360008373ffffffffffffffffffffffffffffffffffffffff1673ffffffffffffffffffffffffffffffffffffffff168152602001908152602001600020549050919050565b60008060009054906101000a900473ffffffffffffffffffffffffffffffffffffffff16905090565b60036020528060005260406000206000915090505481565b7f5266c8413bf400ae64d8045ab6662549f2a49442eb9a0a2e72f54b99c9a7657a338283600160009054906101000a900473ffffffffffffffffffffffffffffffffffffffff1673ffffffffffffffffffffffffffffffffffffffff1663dd62ed3e33306040518363ffffffff1660e01b8152600401610803929190611090565b602060405180830381865afa158015610820573d6000803e3d6000fd5b505050506040513d601f19601f8201168201806040525081019061084491906110ce565b10156040516108559392919061110a565b60405180910390a1600081116108a0576040517f08c379a00000000000000000000000000000000000000000000000000000000081526004016108979061118d565b60405180910390fd5b6000600260003373ffffffffffffffffffffffffffffffffffffffff1673ffffffffffffffffffffffffffffffffffffffff168152602001908152602001600020905060008160000154111561091a5760006108fb33610548565b9050808260020160008282546109119190610e63565b92505081905550505b8181600001600082825461092e9190610e63565b9250508190555042816001018190555081600360003373ffffffffffffffffffffffffffffffffffffffff1673ffffffffffffffffffffffffffffffffffffffff168152602001908152602001600020600082825461098d9190610fba565b925050819055503373ffffffffffffffffffffffffffffffffffffffff167f9e71bc8eea02a63969f509818f2dafb9254532904319f9dbda79b67bd34a5f3d836040516109da9190610c9f565b60405180910390a25050565b6109ee610a6c565b600073ffffffffffffffffffffffffffffffffffffffff168173ffffffffffffffffffffffffffffffffffffffff1603610a605760006040517f1e4fbdf7000000000000000000000000000000000000000000000000000000008152600401610a579190610d43565b60405180910390fd5b610a6981610af3565b50565b610a74610bb7565b73ffffffffffffffffffffffffffffffffffffffff16610a92610741565b73ffffffffffffffffffffffffffffffffffffffff1614610af157610ab5610bb7565b6040517f118cdaa7000000000000000000000000000000000000000000000000000000008152600401610ae89190610d43565b60405180910390fd5b565b60008060009054906101000a900473ffffffffffffffffffffffffffffffffffffffff169050816000806101000a81548173ffffffffffffffffffffffffffffffffffffffff021916908373ffffffffffffffffffffffffffffffffffffffff1602179055508173ffffffffffffffffffffffffffffffffffffffff168173ffffffffffffffffffffffffffffffffffffffff167f8be0079c531659141344cd1fd0a4f28419497f9722a3daafe3b4186f6b6457e060405160405180910390a35050565b600033905090565b600080fd5b600073ffffffffffffffffffffffffffffffffffffffff82169050919050565b6000610bef82610bc4565b9050919050565b610bff81610be4565b8114610c0a57600080fd5b50565b600081359050610c1c81610bf6565b92915050565b600060208284031215610c3857610c37610bbf565b5b6000610c4684828501610c0d565b91505092915050565b6000819050919050565b610c6281610c4f565b82525050565b6000606082019050610c7d6000830186610c59565b610c8a6020830185610c59565b610c976040830184610c59565b949350505050565b6000602082019050610cb46000830184610c59565b92915050565b6000819050919050565b6000610cdf610cda610cd584610bc4565b610cba565b610bc4565b9050919050565b6000610cf182610cc4565b9050919050565b6000610d0382610ce6565b9050919050565b610d1381610cf8565b82525050565b6000602082019050610d2e6000830184610d0a565b92915050565b610d3d81610be4565b82525050565b6000602082019050610d586000830184610d34565b92915050565b610d6781610c4f565b8114610d7257600080fd5b50565b600081359050610d8481610d5e565b92915050565b600060208284031215610da057610d9f610bbf565b5b6000610dae84828501610d75565b91505092915050565b600082825260208201905092915050565b7f4e6f20746f6b656e73207374616b656400000000000000000000000000000000600082015250565b6000610dfe601083610db7565b9150610e0982610dc8565b602082019050919050565b60006020820190508181036000830152610e2d81610df1565b9050919050565b7f4e487b7100000000000000000000000000000000000000000000000000000000600052601160045260246000fd5b6000610e6e82610c4f565b9150610e7983610c4f565b9250828201905080821115610e9157610e90610e34565b5b92915050565b6000604082019050610eac6000830185610d34565b610eb96020830184610c59565b9392505050565b60008115159050919050565b610ed581610ec0565b8114610ee057600080fd5b50565b600081519050610ef281610ecc565b92915050565b600060208284031215610f0e57610f0d610bbf565b5b6000610f1c84828501610ee3565b91505092915050565b7f546f6b656e207472616e73666572206661696c65640000000000000000000000600082015250565b6000610f5b601583610db7565b9150610f6682610f25565b602082019050919050565b60006020820190508181036000830152610f8a81610f4e565b9050919050565b6000604082019050610fa66000830185610c59565b610fb36020830184610c59565b9392505050565b6000610fc582610c4f565b9150610fd083610c4f565b9250828203905081811115610fe857610fe7610e34565b5b92915050565b6000610ff982610c4f565b915061100483610c4f565b925082820261101281610c4f565b9150828204841483151761102957611028610e34565b5b5092915050565b7f4e487b7100000000000000000000000000000000000000000000000000000000600052601260045260246000fd5b600061106a82610c4f565b915061107583610c4f565b92508261108557611084611030565b5b828204905092915050565b60006040820190506110a56000830185610d34565b6110b26020830184610d34565b9392505050565b6000815190506110c881610d5e565b92915050565b6000602082840312156110e4576110e3610bbf565b5b60006110f2848285016110b9565b91505092915050565b61110481610ec0565b82525050565b600060608201905061111f6000830186610d34565b61112c6020830185610c59565b61113960408301846110fb565b949350505050565b7f43616e6e6f74207374616b65203020746f6b656e730000000000000000000000600082015250565b6000611177601583610db7565b915061118282611141565b602082019050919050565b600060208201905081810360008301526111a68161116a565b905091905056fea264697066735822122008068144b9e92450a4ebb2f2be9907e7d16f65ca71d27fdaf15fb773f700daa264736f6c634300081b0033",
  "linkReferences": {},
  "deployedLinkReferences": {}
}